{
  "_format": "hh-sol-artifact-1",
  "contractName": "DCAAutomationResolver",
  "sourceName": "contracts/DCAAutomationResolver.sol",
  "abi": [
    {
      "inputs": [],
      "name": "OrderNotActive",
      "type": "error"
    },
    {
      "inputs": [],
      "name": "OrderNotFound",
      "type": "error"
    },
    {
      "inputs": [],
      "name": "OrderNotReady",
      "type": "error"
    },
    {
      "inputs": [],
      "name": "UnauthorizedCaller",
      "type": "error"
    },
    {
      "anonymous": false,
      "inputs": [
        {
          "indexed": true,
          "internalType": "address",
          "name": "executor",
          "type": "address"
        }
      ],
      "name": "ExecutorAuthorized",
      "type": "event"
    },
    {
      "anonymous": false,
      "inputs": [
        {
          "indexed": true,
          "internalType": "address",
          "name": "executor",
          "type": "address"
        }
      ],
      "name": "ExecutorRevoked",
      "type": "event"
    },
    {
      "anonymous": false,
      "inputs": [
        {
          "indexed": true,
          "internalType": "bytes32",
          "name": "orderId",
          "type": "bytes32"
        }
      ],
      "name": "OrderCancelled",
      "type": "event"
    },
    {
      "anonymous": false,
      "inputs": [
        {
          "indexed": true,
          "internalType": "bytes32",
          "name": "orderId",
          "type": "bytes32"
        }
      ],
      "name": "OrderCompleted",
      "type": "event"
    },
    {
      "anonymous": false,
      "inputs": [
        {
          "indexed": true,
          "internalType": "bytes32",
          "name": "orderId",
          "type": "bytes32"
        },
        {
          "indexed": true,
          "internalType": "address",
          "name": "user",
          "type": "address"
        }
      ],
      "name": "OrderCreated",
      "type": "event"
    },
    {
      "anonymous": false,
      "inputs": [
        {
          "indexed": true,
          "internalType": "bytes32",
          "name": "orderId",
          "type": "bytes32"
        },
        {
          "indexed": false,
          "internalType": "uint256",
          "name": "executionCount",
          "type": "uint256"
        }
      ],
      "name": "OrderExecuted",
      "type": "event"
    },
    {
      "anonymous": false,
      "inputs": [
        {
          "indexed": true,
          "internalType": "address",
          "name": "previousOwner",
          "type": "address"
        },
        {
          "indexed": true,
          "internalType": "address",
          "name": "newOwner",
          "type": "address"
        }
      ],
      "name": "OwnershipTransferred",
      "type": "event"
    },
    {
      "anonymous": false,
      "inputs": [
        {
          "indexed": true,
          "internalType": "address",
          "name": "caller",
          "type": "address"
        }
      ],
      "name": "UnauthorizedAttempt",
      "type": "event"
    },
    {
      "inputs": [
        {
          "internalType": "uint256",
          "name": "",
          "type": "uint256"
        }
      ],
      "name": "allOrderIds",
      "outputs": [
        {
          "internalType": "bytes32",
          "name": "",
          "type": "bytes32"
        }
      ],
      "stateMutability": "view",
      "type": "function"
    },
    {
      "inputs": [
        {
          "internalType": "address",
          "name": "executor",
          "type": "address"
        }
      ],
      "name": "authorizeExecutor",
      "outputs": [],
      "stateMutability": "nonpayable",
      "type": "function"
    },
    {
      "inputs": [
        {
          "internalType": "address",
          "name": "",
          "type": "address"
        }
      ],
      "name": "authorizedExecutors",
      "outputs": [
        {
          "internalType": "bool",
          "name": "",
          "type": "bool"
        }
      ],
      "stateMutability": "view",
      "type": "function"
    },
    {
      "inputs": [
        {
          "internalType": "bytes32",
          "name": "orderId",
          "type": "bytes32"
        }
      ],
      "name": "cancelOrder",
      "outputs": [],
      "stateMutability": "nonpayable",
      "type": "function"
    },
    {
      "inputs": [],
      "name": "checker",
      "outputs": [
        {
          "internalType": "bool",
          "name": "canExec",
          "type": "bool"
        },
        {
          "internalType": "bytes",
          "name": "execPayload",
          "type": "bytes"
        }
      ],
      "stateMutability": "view",
      "type": "function"
    },
    {
      "inputs": [
        {
          "internalType": "bytes32",
          "name": "orderId",
          "type": "bytes32"
        },
        {
          "internalType": "address",
          "name": "user",
          "type": "address"
        },
        {
          "internalType": "address",
          "name": "smartWallet",
          "type": "address"
        },
        {
          "internalType": "string",
          "name": "agentKeyId",
          "type": "string"
        },
        {
          "internalType": "address",
          "name": "sellToken",
          "type": "address"
        },
        {
          "internalType": "address",
          "name": "buyToken",
          "type": "address"
        },
        {
          "internalType": "uint256",
          "name": "amountPerExecution",
          "type": "uint256"
        },
        {
          "internalType": "uint256",
          "name": "frequency",
          "type": "uint256"
        },
        {
          "internalType": "uint256",
          "name": "totalExecutions",
          "type": "uint256"
        }
      ],
      "name": "createOrder",
      "outputs": [],
      "stateMutability": "nonpayable",
      "type": "function"
    },
    {
      "inputs": [
        {
          "internalType": "bytes32",
          "name": "",
          "type": "bytes32"
        }
      ],
      "name": "dcaOrders",
      "outputs": [
        {
          "internalType": "address",
          "name": "user",
          "type": "address"
        },
        {
          "internalType": "address",
          "name": "smartWallet",
          "type": "address"
        },
        {
          "internalType": "string",
          "name": "agentKeyId",
          "type": "string"
        },
        {
          "internalType": "address",
          "name": "sellToken",
          "type": "address"
        },
        {
          "internalType": "address",
          "name": "buyToken",
          "type": "address"
        },
        {
          "internalType": "uint256",
          "name": "amountPerExecution",
          "type": "uint256"
        },
        {
          "internalType": "uint256",
          "name": "frequency",
          "type": "uint256"
        },
        {
          "internalType": "uint256",
          "name": "totalExecutions",
          "type": "uint256"
        },
        {
          "internalType": "uint256",
          "name": "executionsCompleted",
          "type": "uint256"
        },
        {
          "internalType": "uint256",
          "name": "lastExecutionTime",
          "type": "uint256"
        },
        {
          "internalType": "bool",
          "name": "isActive",
          "type": "bool"
        }
      ],
      "stateMutability": "view",
      "type": "function"
    },
    {
      "inputs": [],
      "name": "emergencyPause",
      "outputs": [],
      "stateMutability": "nonpayable",
      "type": "function"
    },
    {
      "inputs": [
        {
          "internalType": "bytes32[]",
          "name": "orderIds",
          "type": "bytes32[]"
        }
      ],
      "name": "executeOrders",
      "outputs": [],
      "stateMutability": "nonpayable",
      "type": "function"
    },
    {
      "inputs": [
        {
          "internalType": "bytes32",
          "name": "orderId",
          "type": "bytes32"
        }
      ],
      "name": "getOrder",
      "outputs": [
        {
          "components": [
            {
              "internalType": "address",
              "name": "user",
              "type": "address"
            },
            {
              "internalType": "address",
              "name": "smartWallet",
              "type": "address"
            },
            {
              "internalType": "string",
              "name": "agentKeyId",
              "type": "string"
            },
            {
              "internalType": "address",
              "name": "sellToken",
              "type": "address"
            },
            {
              "internalType": "address",
              "name": "buyToken",
              "type": "address"
            },
            {
              "internalType": "uint256",
              "name": "amountPerExecution",
              "type": "uint256"
            },
            {
              "internalType": "uint256",
              "name": "frequency",
              "type": "uint256"
            },
            {
              "internalType": "uint256",
              "name": "totalExecutions",
              "type": "uint256"
            },
            {
              "internalType": "uint256",
              "name": "executionsCompleted",
              "type": "uint256"
            },
            {
              "internalType": "uint256",
              "name": "lastExecutionTime",
              "type": "uint256"
            },
            {
              "internalType": "bool",
              "name": "isActive",
              "type": "bool"
            }
          ],
          "internalType": "struct DCAAutomationResolver.DCAOrder",
          "name": "order",
          "type": "tuple"
        }
      ],
      "stateMutability": "view",
      "type": "function"
    },
    {
      "inputs": [],
      "name": "getReadyOrders",
      "outputs": [
        {
          "internalType": "bytes32[]",
          "name": "readyOrders",
          "type": "bytes32[]"
        }
      ],
      "stateMutability": "view",
      "type": "function"
    },
    {
      "inputs": [],
      "name": "getTotalOrders",
      "outputs": [
        {
          "internalType": "uint256",
          "name": "count",
          "type": "uint256"
        }
      ],
      "stateMutability": "view",
      "type": "function"
    },
    {
      "inputs": [
        {
          "internalType": "address",
          "name": "user",
          "type": "address"
        }
      ],
      "name": "getUserOrders",
      "outputs": [
        {
          "internalType": "bytes32[]",
          "name": "orderIds",
          "type": "bytes32[]"
        }
      ],
      "stateMutability": "view",
      "type": "function"
    },
    {
      "inputs": [],
      "name": "owner",
      "outputs": [
        {
          "internalType": "address",
          "name": "",
          "type": "address"
        }
      ],
      "stateMutability": "view",
      "type": "function"
    },
    {
      "inputs": [],
      "name": "renounceOwnership",
      "outputs": [],
      "stateMutability": "nonpayable",
      "type": "function"
    },
    {
      "inputs": [
        {
          "internalType": "address",
          "name": "executor",
          "type": "address"
        }
      ],
      "name": "revokeExecutor",
      "outputs": [],
      "stateMutability": "nonpayable",
      "type": "function"
    },
    {
      "inputs": [
        {
          "internalType": "address",
          "name": "newOwner",
          "type": "address"
        }
      ],
      "name": "transferOwnership",
      "outputs": [],
      "stateMutability": "nonpayable",
      "type": "function"
    },
    {
      "inputs": [
        {
          "internalType": "address",
          "name": "",
          "type": "address"
        },
        {
          "internalType": "uint256",
          "name": "",
          "type": "uint256"
        }
      ],
      "name": "userOrders",
      "outputs": [
        {
          "internalType": "bytes32",
          "name": "",
          "type": "bytes32"
        }
      ],
      "stateMutability": "view",
      "type": "function"
    },
    {
      "inputs": [
        {
          "internalType": "uint256",
          "name": "amount",
          "type": "uint256"
        }
      ],
      "name": "withdrawETH",
      "outputs": [],
      "stateMutability": "nonpayable",
      "type": "function"
    },
    {
      "stateMutability": "payable",
      "type": "receive"
    }
  ],
  "bytecode": "0x608060405234801561001057600080fd5b5061001a33610023565b60018055610073565b600080546001600160a01b038381166001600160a01b0319831681178455604051919092169283917f8be0079c531659141344cd1fd0a4f28419497f9722a3daafe3b4186f6b6457e09190a35050565b611941806100826000396000f3fe6080604052600436106101185760003560e01c8063715018a6116100a0578063cf5303cf11610064578063cf5303cf14610331578063d510125114610354578063f14210a614610374578063f2fde38b14610394578063fb65d668146103b457600080fd5b8063715018a6146102945780637489ec23146102a9578063856652e9146102c95780638da5cb5b146102e9578063bd8d53361461031157600080fd5b80635778472a116100e75780635778472a146101ba57806363c69f08146101e7578063643590f914610214578063679d86a7146102345780636ed2f6e91461027457600080fd5b80632bf05e9b14610124578063375f16a714610157578063485782b51461016c57806351858e27146101a357600080fd5b3661011f57005b600080fd5b34801561013057600080fd5b5061014461013f366004611341565b6103c9565b6040519081526020015b60405180910390f35b34801561016357600080fd5b50600454610144565b34801561017857600080fd5b5061018c610187366004611341565b6103ea565b60405161014e9b9a999897969594939291906113a0565b3480156101af57600080fd5b506101b86104e7565b005b3480156101c657600080fd5b506101da6101d5366004611341565b6104f1565b60405161014e9190611415565b3480156101f357600080fd5b5061020761020236600461150b565b6106a9565b60405161014e919061152d565b34801561022057600080fd5b506101b861022f36600461150b565b610715565b34801561024057600080fd5b5061026461024f36600461150b565b60056020526000908152604090205460ff1681565b604051901515815260200161014e565b34801561028057600080fd5b506101b861028f366004611571565b610769565b3480156102a057600080fd5b506101b861085a565b3480156102b557600080fd5b506101b86102c4366004611341565b61086c565b3480156102d557600080fd5b506101446102e43660046115e6565b610959565b3480156102f557600080fd5b506000546040516001600160a01b03909116815260200161014e565b34801561031d57600080fd5b506101b861032c366004611626565b61098a565b34801561033d57600080fd5b50610346610bff565b60405161014e929190611741565b34801561036057600080fd5b506101b861036f36600461150b565b610df6565b34801561038057600080fd5b506101b861038f366004611341565b610e47565b3480156103a057600080fd5b506101b86103af36600461150b565b610ecf565b3480156103c057600080fd5b50610207610f48565b600481815481106103d957600080fd5b600091825260209091200154905081565b60026020819052600091825260409091208054600182015492820180546001600160a01b0392831694909216929161042190611764565b80601f016020809104026020016040519081016040528092919081815260200182805461044d90611764565b801561049a5780601f1061046f5761010080835404028352916020019161049a565b820191906000526020600020905b81548152906001019060200180831161047d57829003601f168201915b50505060038401546004850154600586015460068701546007880154600889015460098a0154600a909a015498996001600160a01b03968716999590961697509295509093909260ff168b565b6104ef611109565b565b61057460405180610160016040528060006001600160a01b0316815260200160006001600160a01b031681526020016060815260200160006001600160a01b0316815260200160006001600160a01b0316815260200160008152602001600081526020016000815260200160008152602001600081526020016000151581525090565b60008281526002602081815260409283902083516101608101855281546001600160a01b03908116825260018301541692810192909252918201805491938401916105be90611764565b80601f01602080910402602001604051908101604052809291908181526020018280546105ea90611764565b80156106375780601f1061060c57610100808354040283529160200191610637565b820191906000526020600020905b81548152906001019060200180831161061a57829003601f168201915b505050918352505060038201546001600160a01b03908116602083015260048301541660408201526005820154606082015260068201546080820152600782015460a0820152600882015460c0820152600982015460e0820152600a9091015460ff1615156101009091015292915050565b6001600160a01b03811660009081526003602090815260409182902080548351818402810184019094528084526060939283018282801561070957602002820191906000526020600020905b8154815260200190600101908083116106f5575b50505050509050919050565b61071d611109565b6001600160a01b038116600081815260056020526040808220805460ff19166001179055517f52762435f58790076157ea2a4914a5a4d0aa0eb421588891377692f7fd3bc0829190a250565b610771611163565b6000546001600160a01b031633148061078957503330145b806107a357503360009081526005602052604090205460ff165b61080e5760405133907f84d918fd6d1e74f5b770514a972f1ddd8e0998fc68442cafffa985e34cdf2c1690600090a260405162461bcd60e51b815260206004820152600c60248201526b155b985d5d1a1bdc9a5e995960a21b60448201526064015b60405180910390fd5b60005b8181101561084c5761083a83838381811061082e5761082e61179e565b905060200201356111bc565b80610844816117ca565b915050610811565b5061085660018055565b5050565b610862611109565b6104ef60006112f1565b600081815260026020526040902080546001600160a01b031633148061089c57506000546001600160a01b031633145b6108d75760405162461bcd60e51b815260206004820152600c60248201526b155b985d5d1a1bdc9a5e995960a21b6044820152606401610805565b600a81015460ff1661091e5760405162461bcd60e51b815260206004820152601060248201526f4f72646572206e6f742061637469766560801b6044820152606401610805565b600a8101805460ff1916905560405182907f5152abf959f6564662358c2e52b702259b78bac5ee7842a0f01937e670efcc7d90600090a25050565b6003602052816000526040600020818154811061097557600080fd5b90600052602060002001600091509150505481565b610992611109565b6000898152600260205260409020546001600160a01b0316156109ee5760405162461bcd60e51b81526020600482015260146024820152734f7264657220616c72656164792065786973747360601b6044820152606401610805565b604051806101600160405280896001600160a01b03168152602001886001600160a01b03168152602001878152602001866001600160a01b03168152602001856001600160a01b03168152602001848152602001838152602001828152602001600081526020016000815260200160011515815250600260008b815260200190815260200160002060008201518160000160006101000a8154816001600160a01b0302191690836001600160a01b0316021790555060208201518160010160006101000a8154816001600160a01b0302191690836001600160a01b031602179055506040820151816002019081610ae59190611832565b506060820151600382810180546001600160a01b03199081166001600160a01b03948516179091556080850151600480860180549093169185169190911790915560a0850151600585015560c0850151600685015560e085015160078501556101008501516008850155610120850151600985015561014090940151600a909301805460ff1916931515939093179092558a166000818152602092835260408082208054600181810183559184529483209094018e9055845493840185559381527f8a35acfbc15ff81a39ae7d344fd709f28e8600b4aa8c65c6b64bfe7fe36bd19b9092018c905591518b917ffe3abe4ac576af677b15551bc3727d347d2c7b3d0aa6e5d4ec1bed01e3f13d1691a3505050505050505050565b60408051600a808252610160820190925260009160609183916020820161014080368337019050509050600042815b60045481108015610c3f5750600a83105b15610cf857600060048281548110610c5957610c5961179e565b600091825260208083209091015480835260029091526040909120600a8101549192509060ff168015610c93575080600701548160080154105b8015610cb2575080600601548160090154610cae91906118f2565b8410155b15610ce35781868681518110610cca57610cca61179e565b602090810291909101015284610cdf816117ca565b9550505b50508080610cf0906117ca565b915050610c2e565b508115610def5760008267ffffffffffffffff811115610d1a57610d1a611610565b604051908082528060200260200182016040528015610d43578160200160208202803683370190505b50905060005b83811015610d9a57848181518110610d6357610d6361179e565b6020026020010151828281518110610d7d57610d7d61179e565b602090810291909101015280610d92816117ca565b915050610d49565b5060405160019650636ed2f6e960e01b90610db990839060240161152d565b60408051601f198184030181529190526020810180516001600160e01b03166001600160e01b0319909316929092179091529450505b5050509091565b610dfe611109565b6001600160a01b038116600081815260056020526040808220805460ff19169055517f02dc911aaa0e4aefb4e1898cc626902c4d63f9304bb8cc1fd10c1bf23a1a7d6a9190a250565b610e4f611109565b80471015610e965760405162461bcd60e51b8152602060048201526014602482015273496e73756666696369656e742062616c616e636560601b6044820152606401610805565b600080546040516001600160a01b039091169183156108fc02918491818181858888f19350505050158015610856573d6000803e3d6000fd5b610ed7611109565b6001600160a01b038116610f3c5760405162461bcd60e51b815260206004820152602660248201527f4f776e61626c653a206e6577206f776e657220697320746865207a65726f206160448201526564647265737360d01b6064820152608401610805565b610f45816112f1565b50565b6060426000805b600454811015610fef57600060048281548110610f6e57610f6e61179e565b600091825260208083209091015480835260029091526040909120600a8101549192509060ff168015610fa8575080600701548160080154105b8015610fc7575080600601548160090154610fc391906118f2565b8510155b15610fda5783610fd6816117ca565b9450505b50508080610fe7906117ca565b915050610f4f565b508067ffffffffffffffff81111561100957611009611610565b604051908082528060200260200182016040528015611032578160200160208202803683370190505b5092506000805b6004548110801561104957508282105b15611102576000600482815481106110635761106361179e565b600091825260208083209091015480835260029091526040909120600a8101549192509060ff16801561109d575080600701548160080154105b80156110bc5750806006015481600901546110b891906118f2565b8610155b156110ed57818785815181106110d4576110d461179e565b6020908102919091010152836110e9816117ca565b9450505b505080806110fa906117ca565b915050611039565b5050505090565b6000546001600160a01b031633146104ef5760405162461bcd60e51b815260206004820181905260248201527f4f776e61626c653a2063616c6c6572206973206e6f7420746865206f776e65726044820152606401610805565b6002600154036111b55760405162461bcd60e51b815260206004820152601f60248201527f5265656e7472616e637947756172643a207265656e7472616e742063616c6c006044820152606401610805565b6002600155565b6000818152600260205260409020600a81015460ff166111ef57604051631d4ecc5b60e01b815260040160405180910390fd5b806007015481600801541061121757604051630159460f60e41b815260040160405180910390fd5b8060060154816009015461122b91906118f2565b42101561124b57604051630159460f60e41b815260040160405180910390fd5b60088101805490600061125d836117ca565b909155505042600982015560078101546008820154106112af57600a8101805460ff1916905560405182907fc1471de81880c1b225e1d454a583a6f0fde1f88fb0f03ca678be2a3656c0f7c290600090a25b817fe8ade2685198c6bfe966dce5f0f784436b665f282482334786c7b49516b98aa682600801546040516112e591815260200190565b60405180910390a25050565b600080546001600160a01b038381166001600160a01b0319831681178455604051919092169283917f8be0079c531659141344cd1fd0a4f28419497f9722a3daafe3b4186f6b6457e09190a35050565b60006020828403121561135357600080fd5b5035919050565b6000815180845260005b8181101561138057602081850181015186830182015201611364565b506000602082860101526020601f19601f83011685010191505092915050565b6001600160a01b038c811682528b81166020830152610160604083018190526000916113ce8483018e61135a565b9b811660608501529990991660808301525060a081019690965260c086019490945260e0850192909252610100840152610120830152151561014090910152509392505050565b6020815261142f6020820183516001600160a01b03169052565b6000602083015161144b60408401826001600160a01b03169052565b50604083015161016080606085015261146861018085018361135a565b9150606085015161148460808601826001600160a01b03169052565b5060808501516001600160a01b03811660a08601525060a085015160c08581019190915285015160e080860191909152850151610100808601919091528501516101208086019190915285015161014080860191909152850151801515828601525090949350505050565b80356001600160a01b038116811461150657600080fd5b919050565b60006020828403121561151d57600080fd5b611526826114ef565b9392505050565b6020808252825182820181905260009190848201906040850190845b8181101561156557835183529284019291840191600101611549565b50909695505050505050565b6000806020838503121561158457600080fd5b823567ffffffffffffffff8082111561159c57600080fd5b818501915085601f8301126115b057600080fd5b8135818111156115bf57600080fd5b8660208260051b85010111156115d457600080fd5b60209290920196919550909350505050565b600080604083850312156115f957600080fd5b611602836114ef565b946020939093013593505050565b634e487b7160e01b600052604160045260246000fd5b60008060008060008060008060006101208a8c03121561164557600080fd5b8935985061165560208b016114ef565b975061166360408b016114ef565b965060608a013567ffffffffffffffff8082111561168057600080fd5b818c0191508c601f83011261169457600080fd5b8135818111156116a6576116a6611610565b604051601f8201601f19908116603f011681019083821181831017156116ce576116ce611610565b816040528281528f60208487010111156116e757600080fd5b82602086016020830137600060208483010152809a50505050505061170e60808b016114ef565b945061171c60a08b016114ef565b935060c08a0135925060e08a013591506101008a013590509295985092959850929598565b821515815260406020820152600061175c604083018461135a565b949350505050565b600181811c9082168061177857607f821691505b60208210810361179857634e487b7160e01b600052602260045260246000fd5b50919050565b634e487b7160e01b600052603260045260246000fd5b634e487b7160e01b600052601160045260246000fd5b6000600182016117dc576117dc6117b4565b5060010190565b601f82111561182d57600081815260208120601f850160051c8101602086101561180a5750805b601f850160051c820191505b8181101561182957828155600101611816565b5050505b505050565b815167ffffffffffffffff81111561184c5761184c611610565b6118608161185a8454611764565b846117e3565b602080601f831160018114611895576000841561187d5750858301515b600019600386901b1c1916600185901b178555611829565b600085815260208120601f198616915b828110156118c4578886015182559484019460019091019084016118a5565b50858210156118e25787850151600019600388901b60f8161c191681555b5050505050600190811b01905550565b80820180821115611905576119056117b4565b9291505056fea26469706673582212204a3b89aad9cd65744688cea673d1d972f4abdf990a6ffae32ca6a5065300348464736f6c63430008130033",
  "linkReferences": {},
  "deployedLinkReferences": {}
}