{"contracts/DCAAutomationResolver.sol":{"DCAAutomationResolver":{"abi":[{"inputs":[],"name":"OrderNotActive","type":"error"},{"inputs":[],"name":"OrderNotFound","type":"error"},{"inputs":[],"name":"OrderNotReady","type":"error"},{"inputs":[],"name":"UnauthorizedCaller","type":"error"},{"anonymous":false,"inputs":[{"indexed":true,"internalType":"bytes32","name":"orderId","type":"bytes32"}],"name":"OrderCancelled","type":"event"},{"anonymous":false,"inputs":[{"indexed":true,"internalType":"bytes32","name":"orderId","type":"bytes32"}],"name":"OrderCompleted","type":"event"},{"anonymous":false,"inputs":[{"indexed":true,"internalType":"bytes32","name":"orderId","type":"bytes32"},{"indexed":true,"internalType":"address","name":"user","type":"address"}],"name":"OrderCreated","type":"event"},{"anonymous":false,"inputs":[{"indexed":true,"internalType":"bytes32","name":"orderId","type":"bytes32"},{"indexed":false,"internalType":"uint256","name":"executionCount","type":"uint256"}],"name":"OrderExecuted","type":"event"},{"anonymous":false,"inputs":[{"indexed":true,"internalType":"address","name":"previousOwner","type":"address"},{"indexed":true,"internalType":"address","name":"newOwner","type":"address"}],"name":"OwnershipTransferred","type":"event"},{"inputs":[{"internalType":"uint256","name":"","type":"uint256"}],"name":"allOrderIds","outputs":[{"internalType":"bytes32","name":"","type":"bytes32"}],"stateMutability":"view","type":"function"},{"inputs":[{"internalType":"bytes32","name":"orderId","type":"bytes32"}],"name":"cancelOrder","outputs":[],"stateMutability":"nonpayable","type":"function"},{"inputs":[],"name":"checker","outputs":[{"internalType":"bool","name":"canExec","type":"bool"},{"internalType":"bytes","name":"execPayload","type":"bytes"}],"stateMutability":"view","type":"function"},{"inputs":[{"internalType":"bytes32","name":"orderId","type":"bytes32"},{"internalType":"address","name":"user","type":"address"},{"internalType":"address","name":"smartWallet","type":"address"},{"internalType":"string","name":"agentKeyId","type":"string"},{"internalType":"address","name":"sellToken","type":"address"},{"internalType":"address","name":"buyToken","type":"address"},{"internalType":"uint256","name":"amountPerExecution","type":"uint256"},{"internalType":"uint256","name":"frequency","type":"uint256"},{"internalType":"uint256","name":"totalExecutions","type":"uint256"}],"name":"createOrder","outputs":[],"stateMutability":"nonpayable","type":"function"},{"inputs":[{"internalType":"bytes32","name":"","type":"bytes32"}],"name":"dcaOrders","outputs":[{"internalType":"address","name":"user","type":"address"},{"internalType":"address","name":"smartWallet","type":"address"},{"internalType":"string","name":"agentKeyId","type":"string"},{"internalType":"address","name":"sellToken","type":"address"},{"internalType":"address","name":"buyToken","type":"address"},{"internalType":"uint256","name":"amountPerExecution","type":"uint256"},{"internalType":"uint256","name":"frequency","type":"uint256"},{"internalType":"uint256","name":"totalExecutions","type":"uint256"},{"internalType":"uint256","name":"executionsCompleted","type":"uint256"},{"internalType":"uint256","name":"lastExecutionTime","type":"uint256"},{"internalType":"bool","name":"isActive","type":"bool"}],"stateMutability":"view","type":"function"},{"inputs":[],"name":"emergencyPause","outputs":[],"stateMutability":"nonpayable","type":"function"},{"inputs":[{"internalType":"bytes32[]","name":"orderIds","type":"bytes32[]"}],"name":"executeOrders","outputs":[],"stateMutability":"nonpayable","type":"function"},{"inputs":[{"internalType":"bytes32","name":"orderId","type":"bytes32"}],"name":"getOrder","outputs":[{"components":[{"internalType":"address","name":"user","type":"address"},{"internalType":"address","name":"smartWallet","type":"address"},{"internalType":"string","name":"agentKeyId","type":"string"},{"internalType":"address","name":"sellToken","type":"address"},{"internalType":"address","name":"buyToken","type":"address"},{"internalType":"uint256","name":"amountPerExecution","type":"uint256"},{"internalType":"uint256","name":"frequency","type":"uint256"},{"internalType":"uint256","name":"totalExecutions","type":"uint256"},{"internalType":"uint256","name":"executionsCompleted","type":"uint256"},{"internalType":"uint256","name":"lastExecutionTime","type":"uint256"},{"internalType":"bool","name":"isActive","type":"bool"}],"internalType":"struct DCAAutomationResolver.DCAOrder","name":"order","type":"tuple"}],"stateMutability":"view","type":"function"},{"inputs":[],"name":"getReadyOrders","outputs":[{"internalType":"bytes32[]","name":"readyOrders","type":"bytes32[]"}],"stateMutability":"view","type":"function"},{"inputs":[],"name":"getTotalOrders","outputs":[{"internalType":"uint256","name":"count","type":"uint256"}],"stateMutability":"view","type":"function"},{"inputs":[{"internalType":"address","name":"user","type":"address"}],"name":"getUserOrders","outputs":[{"internalType":"bytes32[]","name":"orderIds","type":"bytes32[]"}],"stateMutability":"view","type":"function"},{"inputs":[],"name":"owner","outputs":[{"internalType":"address","name":"","type":"address"}],"stateMutability":"view","type":"function"},{"inputs":[],"name":"renounceOwnership","outputs":[],"stateMutability":"nonpayable","type":"function"},{"inputs":[{"internalType":"address","name":"newOwner","type":"address"}],"name":"transferOwnership","outputs":[],"stateMutability":"nonpayable","type":"function"},{"inputs":[{"internalType":"address","name":"","type":"address"},{"internalType":"uint256","name":"","type":"uint256"}],"name":"userOrders","outputs":[{"internalType":"bytes32","name":"","type":"bytes32"}],"stateMutability":"view","type":"function"}],"evm":{"bytecode":{"linkReferences":{},"object":"608060405234801561001057600080fd5b5061001a33610023565b60018055610073565b600080546001600160a01b038381166001600160a01b0319831681178455604051919092169283917f8be0079c531659141344cd1fd0a4f28419497f9722a3daafe3b4186f6b6457e09190a35050565b611642806100826000396000f3fe608060405234801561001057600080fd5b50600436106100f55760003560e01c8063715018a611610097578063bd8d533611610066578063bd8d5336146101f8578063cf5303cf1461020b578063f2fde38b14610221578063fb65d6681461023457600080fd5b8063715018a6146101af5780637489ec23146101b7578063856652e9146101ca5780638da5cb5b146101dd57600080fd5b806351858e27116100d357806351858e27146101525780635778472a1461015c57806363c69f081461017c5780636ed2f6e91461019c57600080fd5b80632bf05e9b146100fa578063375f16a714610120578063485782b514610128575b600080fd5b61010d610108366004611042565b61023c565b6040519081526020015b60405180910390f35b60045461010d565b61013b610136366004611042565b61025d565b6040516101179b9a999897969594939291906110a1565b61015a61035a565b005b61016f61016a366004611042565b610364565b6040516101179190611116565b61018f61018a36600461120c565b61051c565b604051610117919061122e565b61015a6101aa366004611272565b610588565b61015a610634565b61015a6101c5366004611042565b610646565b61010d6101d83660046112e7565b610733565b6000546040516001600160a01b039091168152602001610117565b61015a610206366004611327565b610764565b6102136109d9565b604051610117929190611442565b61015a61022f36600461120c565b610bd0565b61018f610c49565b6004818154811061024c57600080fd5b600091825260209091200154905081565b60026020819052600091825260409091208054600182015492820180546001600160a01b0392831694909216929161029490611465565b80601f01602080910402602001604051908101604052809291908181526020018280546102c090611465565b801561030d5780601f106102e25761010080835404028352916020019161030d565b820191906000526020600020905b8154815290600101906020018083116102f057829003601f168201915b50505060038401546004850154600586015460068701546007880154600889015460098a0154600a909a015498996001600160a01b03968716999590961697509295509093909260ff168b565b610362610e0a565b565b6103e760405180610160016040528060006001600160a01b0316815260200160006001600160a01b031681526020016060815260200160006001600160a01b0316815260200160006001600160a01b0316815260200160008152602001600081526020016000815260200160008152602001600081526020016000151581525090565b60008281526002602081815260409283902083516101608101855281546001600160a01b039081168252600183015416928101929092529182018054919384019161043190611465565b80601f016020809104026020016040519081016040528092919081815260200182805461045d90611465565b80156104aa5780601f1061047f576101008083540402835291602001916104aa565b820191906000526020600020905b81548152906001019060200180831161048d57829003601f168201915b505050918352505060038201546001600160a01b03908116602083015260048301541660408201526005820154606082015260068201546080820152600782015460a0820152600882015460c0820152600982015460e0820152600a9091015460ff1615156101009091015292915050565b6001600160a01b03811660009081526003602090815260409182902080548351818402810184019094528084526060939283018282801561057c57602002820191906000526020600020905b815481526020019060010190808311610568575b50505050509050919050565b610590610e64565b6000546001600160a01b03163314806105a857503330145b6105e85760405162461bcd60e51b815260206004820152600c60248201526b155b985d5d1a1bdc9a5e995960a21b60448201526064015b60405180910390fd5b60005b81811015610626576106148383838181106106085761060861149f565b90506020020135610ebd565b8061061e816114cb565b9150506105eb565b5061063060018055565b5050565b61063c610e0a565b6103626000610ff2565b600081815260026020526040902080546001600160a01b031633148061067657506000546001600160a01b031633145b6106b15760405162461bcd60e51b815260206004820152600c60248201526b155b985d5d1a1bdc9a5e995960a21b60448201526064016105df565b600a81015460ff166106f85760405162461bcd60e51b815260206004820152601060248201526f4f72646572206e6f742061637469766560801b60448201526064016105df565b600a8101805460ff1916905560405182907f5152abf959f6564662358c2e52b702259b78bac5ee7842a0f01937e670efcc7d90600090a25050565b6003602052816000526040600020818154811061074f57600080fd5b90600052602060002001600091509150505481565b61076c610e0a565b6000898152600260205260409020546001600160a01b0316156107c85760405162461bcd60e51b81526020600482015260146024820152734f7264657220616c72656164792065786973747360601b60448201526064016105df565b604051806101600160405280896001600160a01b03168152602001886001600160a01b03168152602001878152602001866001600160a01b03168152602001856001600160a01b03168152602001848152602001838152602001828152602001600081526020016000815260200160011515815250600260008b815260200190815260200160002060008201518160000160006101000a8154816001600160a01b0302191690836001600160a01b0316021790555060208201518160010160006101000a8154816001600160a01b0302191690836001600160a01b0316021790555060408201518160020190816108bf9190611533565b506060820151600382810180546001600160a01b03199081166001600160a01b03948516179091556080850151600480860180549093169185169190911790915560a0850151600585015560c0850151600685015560e085015160078501556101008501516008850155610120850151600985015561014090940151600a909301805460ff1916931515939093179092558a166000818152602092835260408082208054600181810183559184529483209094018e9055845493840185559381527f8a35acfbc15ff81a39ae7d344fd709f28e8600b4aa8c65c6b64bfe7fe36bd19b9092018c905591518b917ffe3abe4ac576af677b15551bc3727d347d2c7b3d0aa6e5d4ec1bed01e3f13d1691a3505050505050505050565b60408051600a808252610160820190925260009160609183916020820161014080368337019050509050600042815b60045481108015610a195750600a83105b15610ad257600060048281548110610a3357610a3361149f565b600091825260208083209091015480835260029091526040909120600a8101549192509060ff168015610a6d575080600701548160080154105b8015610a8c575080600601548160090154610a8891906115f3565b8410155b15610abd5781868681518110610aa457610aa461149f565b602090810291909101015284610ab9816114cb565b9550505b50508080610aca906114cb565b915050610a08565b508115610bc95760008267ffffffffffffffff811115610af457610af4611311565b604051908082528060200260200182016040528015610b1d578160200160208202803683370190505b50905060005b83811015610b7457848181518110610b3d57610b3d61149f565b6020026020010151828281518110610b5757610b5761149f565b602090810291909101015280610b6c816114cb565b915050610b23565b5060405160019650636ed2f6e960e01b90610b9390839060240161122e565b60408051601f198184030181529190526020810180516001600160e01b03166001600160e01b0319909316929092179091529450505b5050509091565b610bd8610e0a565b6001600160a01b038116610c3d5760405162461bcd60e51b815260206004820152602660248201527f4f776e61626c653a206e6577206f776e657220697320746865207a65726f206160448201526564647265737360d01b60648201526084016105df565b610c4681610ff2565b50565b6060426000805b600454811015610cf057600060048281548110610c6f57610c6f61149f565b600091825260208083209091015480835260029091526040909120600a8101549192509060ff168015610ca9575080600701548160080154105b8015610cc8575080600601548160090154610cc491906115f3565b8510155b15610cdb5783610cd7816114cb565b9450505b50508080610ce8906114cb565b915050610c50565b508067ffffffffffffffff811115610d0a57610d0a611311565b604051908082528060200260200182016040528015610d33578160200160208202803683370190505b5092506000805b60045481108015610d4a57508282105b15610e0357600060048281548110610d6457610d6461149f565b600091825260208083209091015480835260029091526040909120600a8101549192509060ff168015610d9e575080600701548160080154105b8015610dbd575080600601548160090154610db991906115f3565b8610155b15610dee5781878581518110610dd557610dd561149f565b602090810291909101015283610dea816114cb565b9450505b50508080610dfb906114cb565b915050610d3a565b5050505090565b6000546001600160a01b031633146103625760405162461bcd60e51b815260206004820181905260248201527f4f776e61626c653a2063616c6c6572206973206e6f7420746865206f776e657260448201526064016105df565b600260015403610eb65760405162461bcd60e51b815260206004820152601f60248201527f5265656e7472616e637947756172643a207265656e7472616e742063616c6c0060448201526064016105df565b6002600155565b6000818152600260205260409020600a81015460ff16610ef057604051631d4ecc5b60e01b815260040160405180910390fd5b8060070154816008015410610f1857604051630159460f60e41b815260040160405180910390fd5b80600601548160090154610f2c91906115f3565b421015610f4c57604051630159460f60e41b815260040160405180910390fd5b600881018054906000610f5e836114cb565b90915550504260098201556007810154600882015410610fb057600a8101805460ff1916905560405182907fc1471de81880c1b225e1d454a583a6f0fde1f88fb0f03ca678be2a3656c0f7c290600090a25b817fe8ade2685198c6bfe966dce5f0f784436b665f282482334786c7b49516b98aa68260080154604051610fe691815260200190565b60405180910390a25050565b600080546001600160a01b038381166001600160a01b0319831681178455604051919092169283917f8be0079c531659141344cd1fd0a4f28419497f9722a3daafe3b4186f6b6457e09190a35050565b60006020828403121561105457600080fd5b5035919050565b6000815180845260005b8181101561108157602081850181015186830182015201611065565b506000602082860101526020601f19601f83011685010191505092915050565b6001600160a01b038c811682528b81166020830152610160604083018190526000916110cf8483018e61105b565b9b811660608501529990991660808301525060a081019690965260c086019490945260e0850192909252610100840152610120830152151561014090910152509392505050565b602081526111306020820183516001600160a01b03169052565b6000602083015161114c60408401826001600160a01b03169052565b50604083015161016080606085015261116961018085018361105b565b9150606085015161118560808601826001600160a01b03169052565b5060808501516001600160a01b03811660a08601525060a085015160c08581019190915285015160e080860191909152850151610100808601919091528501516101208086019190915285015161014080860191909152850151801515828601525090949350505050565b80356001600160a01b038116811461120757600080fd5b919050565b60006020828403121561121e57600080fd5b611227826111f0565b9392505050565b6020808252825182820181905260009190848201906040850190845b818110156112665783518352928401929184019160010161124a565b50909695505050505050565b6000806020838503121561128557600080fd5b823567ffffffffffffffff8082111561129d57600080fd5b818501915085601f8301126112b157600080fd5b8135818111156112c057600080fd5b8660208260051b85010111156112d557600080fd5b60209290920196919550909350505050565b600080604083850312156112fa57600080fd5b611303836111f0565b946020939093013593505050565b634e487b7160e01b600052604160045260246000fd5b60008060008060008060008060006101208a8c03121561134657600080fd5b8935985061135660208b016111f0565b975061136460408b016111f0565b965060608a013567ffffffffffffffff8082111561138157600080fd5b818c0191508c601f83011261139557600080fd5b8135818111156113a7576113a7611311565b604051601f8201601f19908116603f011681019083821181831017156113cf576113cf611311565b816040528281528f60208487010111156113e857600080fd5b82602086016020830137600060208483010152809a50505050505061140f60808b016111f0565b945061141d60a08b016111f0565b935060c08a0135925060e08a013591506101008a013590509295985092959850929598565b821515815260406020820152600061145d604083018461105b565b949350505050565b600181811c9082168061147957607f821691505b60208210810361149957634e487b7160e01b600052602260045260246000fd5b50919050565b634e487b7160e01b600052603260045260246000fd5b634e487b7160e01b600052601160045260246000fd5b6000600182016114dd576114dd6114b5565b5060010190565b601f82111561152e57600081815260208120601f850160051c8101602086101561150b5750805b601f850160051c820191505b8181101561152a57828155600101611517565b5050505b505050565b815167ffffffffffffffff81111561154d5761154d611311565b6115618161155b8454611465565b846114e4565b602080601f831160018114611596576000841561157e5750858301515b600019600386901b1c1916600185901b17855561152a565b600085815260208120601f198616915b828110156115c5578886015182559484019460019091019084016115a6565b50858210156115e35787850151600019600388901b60f8161c191681555b5050505050600190811b01905550565b80820180821115611606576116066114b5565b9291505056fea2646970667358221220530b6cc53031eae48b352d723be7dfe13ddbbc0f0c16dfc65e0d9fa40e05b6d964736f6c63430008130033","opcodes":"PUSH1 0x80 PUSH1 0x40 MSTORE CALLVALUE DUP1 ISZERO PUSH2 0x10 JUMPI PUSH1 0x0 DUP1 REVERT JUMPDEST POP PUSH2 0x1A CALLER PUSH2 0x23 JUMP JUMPDEST PUSH1 0x1 DUP1 SSTORE PUSH2 0x73 JUMP JUMPDEST PUSH1 0x0 DUP1 SLOAD PUSH1 0x1 PUSH1 0x1 PUSH1 0xA0 SHL SUB DUP4 DUP2 AND PUSH1 0x1 PUSH1 0x1 PUSH1 0xA0 SHL SUB NOT DUP4 AND DUP2 OR DUP5 SSTORE PUSH1 0x40 MLOAD SWAP2 SWAP1 SWAP3 AND SWAP3 DUP4 SWAP2 PUSH32 0x8BE0079C531659141344CD1FD0A4F28419497F9722A3DAAFE3B4186F6B6457E0 SWAP2 SWAP1 LOG3 POP POP JUMP JUMPDEST PUSH2 0x1642 DUP1 PUSH2 0x82 PUSH1 0x0 CODECOPY PUSH1 0x0 RETURN INVALID PUSH1 0x80 PUSH1 0x40 MSTORE CALLVALUE DUP1 ISZERO PUSH2 0x10 JUMPI PUSH1 0x0 DUP1 REVERT JUMPDEST POP PUSH1 0x4 CALLDATASIZE LT PUSH2 0xF5 JUMPI PUSH1 0x0 CALLDATALOAD PUSH1 0xE0 SHR DUP1 PUSH4 0x715018A6 GT PUSH2 0x97 JUMPI DUP1 PUSH4 0xBD8D5336 GT PUSH2 0x66 JUMPI DUP1 PUSH4 0xBD8D5336 EQ PUSH2 0x1F8 JUMPI DUP1 PUSH4 0xCF5303CF EQ PUSH2 0x20B JUMPI DUP1 PUSH4 0xF2FDE38B EQ PUSH2 0x221 JUMPI DUP1 PUSH4 0xFB65D668 EQ PUSH2 0x234 JUMPI PUSH1 0x0 DUP1 REVERT JUMPDEST DUP1 PUSH4 0x715018A6 EQ PUSH2 0x1AF JUMPI DUP1 PUSH4 0x7489EC23 EQ PUSH2 0x1B7 JUMPI DUP1 PUSH4 0x856652E9 EQ PUSH2 0x1CA JUMPI DUP1 PUSH4 0x8DA5CB5B EQ PUSH2 0x1DD JUMPI PUSH1 0x0 DUP1 REVERT JUMPDEST DUP1 PUSH4 0x51858E27 GT PUSH2 0xD3 JUMPI DUP1 PUSH4 0x51858E27 EQ PUSH2 0x152 JUMPI DUP1 PUSH4 0x5778472A EQ PUSH2 0x15C JUMPI DUP1 PUSH4 0x63C69F08 EQ PUSH2 0x17C JUMPI DUP1 PUSH4 0x6ED2F6E9 EQ PUSH2 0x19C JUMPI PUSH1 0x0 DUP1 REVERT JUMPDEST DUP1 PUSH4 0x2BF05E9B EQ PUSH2 0xFA JUMPI DUP1 PUSH4 0x375F16A7 EQ PUSH2 0x120 JUMPI DUP1 PUSH4 0x485782B5 EQ PUSH2 0x128 JUMPI JUMPDEST PUSH1 0x0 DUP1 REVERT JUMPDEST PUSH2 0x10D PUSH2 0x108 CALLDATASIZE PUSH1 0x4 PUSH2 0x1042 JUMP JUMPDEST PUSH2 0x23C JUMP JUMPDEST PUSH1 0x40 MLOAD SWAP1 DUP2 MSTORE PUSH1 0x20 ADD JUMPDEST PUSH1 0x40 MLOAD DUP1 SWAP2 SUB SWAP1 RETURN JUMPDEST PUSH1 0x4 SLOAD PUSH2 0x10D JUMP JUMPDEST PUSH2 0x13B PUSH2 0x136 CALLDATASIZE PUSH1 0x4 PUSH2 0x1042 JUMP JUMPDEST PUSH2 0x25D JUMP JUMPDEST PUSH1 0x40 MLOAD PUSH2 0x117 SWAP12 SWAP11 SWAP10 SWAP9 SWAP8 SWAP7 SWAP6 SWAP5 SWAP4 SWAP3 SWAP2 SWAP1 PUSH2 0x10A1 JUMP JUMPDEST PUSH2 0x15A PUSH2 0x35A JUMP JUMPDEST STOP JUMPDEST PUSH2 0x16F PUSH2 0x16A CALLDATASIZE PUSH1 0x4 PUSH2 0x1042 JUMP JUMPDEST PUSH2 0x364 JUMP JUMPDEST PUSH1 0x40 MLOAD PUSH2 0x117 SWAP2 SWAP1 PUSH2 0x1116 JUMP JUMPDEST PUSH2 0x18F PUSH2 0x18A CALLDATASIZE PUSH1 0x4 PUSH2 0x120C JUMP JUMPDEST PUSH2 0x51C JUMP JUMPDEST PUSH1 0x40 MLOAD PUSH2 0x117 SWAP2 SWAP1 PUSH2 0x122E JUMP JUMPDEST PUSH2 0x15A PUSH2 0x1AA CALLDATASIZE PUSH1 0x4 PUSH2 0x1272 JUMP JUMPDEST PUSH2 0x588 JUMP JUMPDEST PUSH2 0x15A PUSH2 0x634 JUMP JUMPDEST PUSH2 0x15A PUSH2 0x1C5 CALLDATASIZE PUSH1 0x4 PUSH2 0x1042 JUMP JUMPDEST PUSH2 0x646 JUMP JUMPDEST PUSH2 0x10D PUSH2 0x1D8 CALLDATASIZE PUSH1 0x4 PUSH2 0x12E7 JUMP JUMPDEST PUSH2 0x733 JUMP JUMPDEST PUSH1 0x0 SLOAD PUSH1 0x40 MLOAD PUSH1 0x1 PUSH1 0x1 PUSH1 0xA0 SHL SUB SWAP1 SWAP2 AND DUP2 MSTORE PUSH1 0x20 ADD PUSH2 0x117 JUMP JUMPDEST PUSH2 0x15A PUSH2 0x206 CALLDATASIZE PUSH1 0x4 PUSH2 0x1327 JUMP JUMPDEST PUSH2 0x764 JUMP JUMPDEST PUSH2 0x213 PUSH2 0x9D9 JUMP JUMPDEST PUSH1 0x40 MLOAD PUSH2 0x117 SWAP3 SWAP2 SWAP1 PUSH2 0x1442 JUMP JUMPDEST PUSH2 0x15A PUSH2 0x22F CALLDATASIZE PUSH1 0x4 PUSH2 0x120C JUMP JUMPDEST PUSH2 0xBD0 JUMP JUMPDEST PUSH2 0x18F PUSH2 0xC49 JUMP JUMPDEST PUSH1 0x4 DUP2 DUP2 SLOAD DUP2 LT PUSH2 0x24C JUMPI PUSH1 0x0 DUP1 REVERT JUMPDEST PUSH1 0x0 SWAP2 DUP3 MSTORE PUSH1 0x20 SWAP1 SWAP2 KECCAK256 ADD SLOAD SWAP1 POP DUP2 JUMP JUMPDEST PUSH1 0x2 PUSH1 0x20 DUP2 SWAP1 MSTORE PUSH1 0x0 SWAP2 DUP3 MSTORE PUSH1 0x40 SWAP1 SWAP2 KECCAK256 DUP1 SLOAD PUSH1 0x1 DUP3 ADD SLOAD SWAP3 DUP3 ADD DUP1 SLOAD PUSH1 0x1 PUSH1 0x1 PUSH1 0xA0 SHL SUB SWAP3 DUP4 AND SWAP5 SWAP1 SWAP3 AND SWAP3 SWAP2 PUSH2 0x294 SWAP1 PUSH2 0x1465 JUMP JUMPDEST DUP1 PUSH1 0x1F ADD PUSH1 0x20 DUP1 SWAP2 DIV MUL PUSH1 0x20 ADD PUSH1 0x40 MLOAD SWAP1 DUP2 ADD PUSH1 0x40 MSTORE DUP1 SWAP3 SWAP2 SWAP1 DUP2 DUP2 MSTORE PUSH1 0x20 ADD DUP3 DUP1 SLOAD PUSH2 0x2C0 SWAP1 PUSH2 0x1465 JUMP JUMPDEST DUP1 ISZERO PUSH2 0x30D JUMPI DUP1 PUSH1 0x1F LT PUSH2 0x2E2 JUMPI PUSH2 0x100 DUP1 DUP4 SLOAD DIV MUL DUP4 MSTORE SWAP2 PUSH1 0x20 ADD SWAP2 PUSH2 0x30D JUMP JUMPDEST DUP3 ADD SWAP2 SWAP1 PUSH1 0x0 MSTORE PUSH1 0x20 PUSH1 0x0 KECCAK256 SWAP1 JUMPDEST DUP2 SLOAD DUP2 MSTORE SWAP1 PUSH1 0x1 ADD SWAP1 PUSH1 0x20 ADD DUP1 DUP4 GT PUSH2 0x2F0 JUMPI DUP3 SWAP1 SUB PUSH1 0x1F AND DUP3 ADD SWAP2 JUMPDEST POP POP POP PUSH1 0x3 DUP5 ADD SLOAD PUSH1 0x4 DUP6 ADD SLOAD PUSH1 0x5 DUP7 ADD SLOAD PUSH1 0x6 DUP8 ADD SLOAD PUSH1 0x7 DUP9 ADD SLOAD PUSH1 0x8 DUP10 ADD SLOAD PUSH1 0x9 DUP11 ADD SLOAD PUSH1 0xA SWAP1 SWAP11 ADD SLOAD SWAP9 SWAP10 PUSH1 0x1 PUSH1 0x1 PUSH1 0xA0 SHL SUB SWAP7 DUP8 AND SWAP10 SWAP6 SWAP1 SWAP7 AND SWAP8 POP SWAP3 SWAP6 POP SWAP1 SWAP4 SWAP1 SWAP3 PUSH1 0xFF AND DUP12 JUMP JUMPDEST PUSH2 0x362 PUSH2 0xE0A JUMP JUMPDEST JUMP JUMPDEST PUSH2 0x3E7 PUSH1 0x40 MLOAD DUP1 PUSH2 0x160 ADD PUSH1 0x40 MSTORE DUP1 PUSH1 0x0 PUSH1 0x1 PUSH1 0x1 PUSH1 0xA0 SHL SUB AND DUP2 MSTORE PUSH1 0x20 ADD PUSH1 0x0 PUSH1 0x1 PUSH1 0x1 PUSH1 0xA0 SHL SUB AND DUP2 MSTORE PUSH1 0x20 ADD PUSH1 0x60 DUP2 MSTORE PUSH1 0x20 ADD PUSH1 0x0 PUSH1 0x1 PUSH1 0x1 PUSH1 0xA0 SHL SUB AND DUP2 MSTORE PUSH1 0x20 ADD PUSH1 0x0 PUSH1 0x1 PUSH1 0x1 PUSH1 0xA0 SHL SUB AND DUP2 MSTORE PUSH1 0x20 ADD PUSH1 0x0 DUP2 MSTORE PUSH1 0x20 ADD PUSH1 0x0 DUP2 MSTORE PUSH1 0x20 ADD PUSH1 0x0 DUP2 MSTORE PUSH1 0x20 ADD PUSH1 0x0 DUP2 MSTORE PUSH1 0x20 ADD PUSH1 0x0 DUP2 MSTORE PUSH1 0x20 ADD PUSH1 0x0 ISZERO ISZERO DUP2 MSTORE POP SWAP1 JUMP JUMPDEST PUSH1 0x0 DUP3 DUP2 MSTORE PUSH1 0x2 PUSH1 0x20 DUP2 DUP2 MSTORE PUSH1 0x40 SWAP3 DUP4 SWAP1 KECCAK256 DUP4 MLOAD PUSH2 0x160 DUP2 ADD DUP6 MSTORE DUP2 SLOAD PUSH1 0x1 PUSH1 0x1 PUSH1 0xA0 SHL SUB SWAP1 DUP2 AND DUP3 MSTORE PUSH1 0x1 DUP4 ADD SLOAD AND SWAP3 DUP2 ADD SWAP3 SWAP1 SWAP3 MSTORE SWAP2 DUP3 ADD DUP1 SLOAD SWAP2 SWAP4 DUP5 ADD SWAP2 PUSH2 0x431 SWAP1 PUSH2 0x1465 JUMP JUMPDEST DUP1 PUSH1 0x1F ADD PUSH1 0x20 DUP1 SWAP2 DIV MUL PUSH1 0x20 ADD PUSH1 0x40 MLOAD SWAP1 DUP2 ADD PUSH1 0x40 MSTORE DUP1 SWAP3 SWAP2 SWAP1 DUP2 DUP2 MSTORE PUSH1 0x20 ADD DUP3 DUP1 SLOAD PUSH2 0x45D SWAP1 PUSH2 0x1465 JUMP JUMPDEST DUP1 ISZERO PUSH2 0x4AA JUMPI DUP1 PUSH1 0x1F LT PUSH2 0x47F JUMPI PUSH2 0x100 DUP1 DUP4 SLOAD DIV MUL DUP4 MSTORE SWAP2 PUSH1 0x20 ADD SWAP2 PUSH2 0x4AA JUMP JUMPDEST DUP3 ADD SWAP2 SWAP1 PUSH1 0x0 MSTORE PUSH1 0x20 PUSH1 0x0 KECCAK256 SWAP1 JUMPDEST DUP2 SLOAD DUP2 MSTORE SWAP1 PUSH1 0x1 ADD SWAP1 PUSH1 0x20 ADD DUP1 DUP4 GT PUSH2 0x48D JUMPI DUP3 SWAP1 SUB PUSH1 0x1F AND DUP3 ADD SWAP2 JUMPDEST POP POP POP SWAP2 DUP4 MSTORE POP POP PUSH1 0x3 DUP3 ADD SLOAD PUSH1 0x1 PUSH1 0x1 PUSH1 0xA0 SHL SUB SWAP1 DUP2 AND PUSH1 0x20 DUP4 ADD MSTORE PUSH1 0x4 DUP4 ADD SLOAD AND PUSH1 0x40 DUP3 ADD MSTORE PUSH1 0x5 DUP3 ADD SLOAD PUSH1 0x60 DUP3 ADD MSTORE PUSH1 0x6 DUP3 ADD SLOAD PUSH1 0x80 DUP3 ADD MSTORE PUSH1 0x7 DUP3 ADD SLOAD PUSH1 0xA0 DUP3 ADD MSTORE PUSH1 0x8 DUP3 ADD SLOAD PUSH1 0xC0 DUP3 ADD MSTORE PUSH1 0x9 DUP3 ADD SLOAD PUSH1 0xE0 DUP3 ADD MSTORE PUSH1 0xA SWAP1 SWAP2 ADD SLOAD PUSH1 0xFF AND ISZERO ISZERO PUSH2 0x100 SWAP1 SWAP2 ADD MSTORE SWAP3 SWAP2 POP POP JUMP JUMPDEST PUSH1 0x1 PUSH1 0x1 PUSH1 0xA0 SHL SUB DUP2 AND PUSH1 0x0 SWAP1 DUP2 MSTORE PUSH1 0x3 PUSH1 0x20 SWAP1 DUP2 MSTORE PUSH1 0x40 SWAP2 DUP3 SWAP1 KECCAK256 DUP1 SLOAD DUP4 MLOAD DUP2 DUP5 MUL DUP2 ADD DUP5 ADD SWAP1 SWAP5 MSTORE DUP1 DUP5 MSTORE PUSH1 0x60 SWAP4 SWAP3 DUP4 ADD DUP3 DUP3 DUP1 ISZERO PUSH2 0x57C JUMPI PUSH1 0x20 MUL DUP3 ADD SWAP2 SWAP1 PUSH1 0x0 MSTORE PUSH1 0x20 PUSH1 0x0 KECCAK256 SWAP1 JUMPDEST DUP2 SLOAD DUP2 MSTORE PUSH1 0x20 ADD SWAP1 PUSH1 0x1 ADD SWAP1 DUP1 DUP4 GT PUSH2 0x568 JUMPI JUMPDEST POP POP POP POP POP SWAP1 POP SWAP2 SWAP1 POP JUMP JUMPDEST PUSH2 0x590 PUSH2 0xE64 JUMP JUMPDEST PUSH1 0x0 SLOAD PUSH1 0x1 PUSH1 0x1 PUSH1 0xA0 SHL SUB AND CALLER EQ DUP1 PUSH2 0x5A8 JUMPI POP CALLER ADDRESS EQ JUMPDEST PUSH2 0x5E8 JUMPI PUSH1 0x40 MLOAD PUSH3 0x461BCD PUSH1 0xE5 SHL DUP2 MSTORE PUSH1 0x20 PUSH1 0x4 DUP3 ADD MSTORE PUSH1 0xC PUSH1 0x24 DUP3 ADD MSTORE PUSH12 0x155B985D5D1A1BDC9A5E9959 PUSH1 0xA2 SHL PUSH1 0x44 DUP3 ADD MSTORE PUSH1 0x64 ADD JUMPDEST PUSH1 0x40 MLOAD DUP1 SWAP2 SUB SWAP1 REVERT JUMPDEST PUSH1 0x0 JUMPDEST DUP2 DUP2 LT ISZERO PUSH2 0x626 JUMPI PUSH2 0x614 DUP4 DUP4 DUP4 DUP2 DUP2 LT PUSH2 0x608 JUMPI PUSH2 0x608 PUSH2 0x149F JUMP JUMPDEST SWAP1 POP PUSH1 0x20 MUL ADD CALLDATALOAD PUSH2 0xEBD JUMP JUMPDEST DUP1 PUSH2 0x61E DUP2 PUSH2 0x14CB JUMP JUMPDEST SWAP2 POP POP PUSH2 0x5EB JUMP JUMPDEST POP PUSH2 0x630 PUSH1 0x1 DUP1 SSTORE JUMP JUMPDEST POP POP JUMP JUMPDEST PUSH2 0x63C PUSH2 0xE0A JUMP JUMPDEST PUSH2 0x362 PUSH1 0x0 PUSH2 0xFF2 JUMP JUMPDEST PUSH1 0x0 DUP2 DUP2 MSTORE PUSH1 0x2 PUSH1 0x20 MSTORE PUSH1 0x40 SWAP1 KECCAK256 DUP1 SLOAD PUSH1 0x1 PUSH1 0x1 PUSH1 0xA0 SHL SUB AND CALLER EQ DUP1 PUSH2 0x676 JUMPI POP PUSH1 0x0 SLOAD PUSH1 0x1 PUSH1 0x1 PUSH1 0xA0 SHL SUB AND CALLER EQ JUMPDEST PUSH2 0x6B1 JUMPI PUSH1 0x40 MLOAD PUSH3 0x461BCD PUSH1 0xE5 SHL DUP2 MSTORE PUSH1 0x20 PUSH1 0x4 DUP3 ADD MSTORE PUSH1 0xC PUSH1 0x24 DUP3 ADD MSTORE PUSH12 0x155B985D5D1A1BDC9A5E9959 PUSH1 0xA2 SHL PUSH1 0x44 DUP3 ADD MSTORE PUSH1 0x64 ADD PUSH2 0x5DF JUMP JUMPDEST PUSH1 0xA DUP2 ADD SLOAD PUSH1 0xFF AND PUSH2 0x6F8 JUMPI PUSH1 0x40 MLOAD PUSH3 0x461BCD PUSH1 0xE5 SHL DUP2 MSTORE PUSH1 0x20 PUSH1 0x4 DUP3 ADD MSTORE PUSH1 0x10 PUSH1 0x24 DUP3 ADD MSTORE PUSH16 0x4F72646572206E6F7420616374697665 PUSH1 0x80 SHL PUSH1 0x44 DUP3 ADD MSTORE PUSH1 0x64 ADD PUSH2 0x5DF JUMP JUMPDEST PUSH1 0xA DUP2 ADD DUP1 SLOAD PUSH1 0xFF NOT AND SWAP1 SSTORE PUSH1 0x40 MLOAD DUP3 SWAP1 PUSH32 0x5152ABF959F6564662358C2E52B702259B78BAC5EE7842A0F01937E670EFCC7D SWAP1 PUSH1 0x0 SWAP1 LOG2 POP POP JUMP JUMPDEST PUSH1 0x3 PUSH1 0x20 MSTORE DUP2 PUSH1 0x0 MSTORE PUSH1 0x40 PUSH1 0x0 KECCAK256 DUP2 DUP2 SLOAD DUP2 LT PUSH2 0x74F JUMPI PUSH1 0x0 DUP1 REVERT JUMPDEST SWAP1 PUSH1 0x0 MSTORE PUSH1 0x20 PUSH1 0x0 KECCAK256 ADD PUSH1 0x0 SWAP2 POP SWAP2 POP POP SLOAD DUP2 JUMP JUMPDEST PUSH2 0x76C PUSH2 0xE0A JUMP JUMPDEST PUSH1 0x0 DUP10 DUP2 MSTORE PUSH1 0x2 PUSH1 0x20 MSTORE PUSH1 0x40 SWAP1 KECCAK256 SLOAD PUSH1 0x1 PUSH1 0x1 PUSH1 0xA0 SHL SUB AND ISZERO PUSH2 0x7C8 JUMPI PUSH1 0x40 MLOAD PUSH3 0x461BCD PUSH1 0xE5 SHL DUP2 MSTORE PUSH1 0x20 PUSH1 0x4 DUP3 ADD MSTORE PUSH1 0x14 PUSH1 0x24 DUP3 ADD MSTORE PUSH20 0x4F7264657220616C726561647920657869737473 PUSH1 0x60 SHL PUSH1 0x44 DUP3 ADD MSTORE PUSH1 0x64 ADD PUSH2 0x5DF JUMP JUMPDEST PUSH1 0x40 MLOAD DUP1 PUSH2 0x160 ADD PUSH1 0x40 MSTORE DUP1 DUP10 PUSH1 0x1 PUSH1 0x1 PUSH1 0xA0 SHL SUB AND DUP2 MSTORE PUSH1 0x20 ADD DUP9 PUSH1 0x1 PUSH1 0x1 PUSH1 0xA0 SHL SUB AND DUP2 MSTORE PUSH1 0x20 ADD DUP8 DUP2 MSTORE PUSH1 0x20 ADD DUP7 PUSH1 0x1 PUSH1 0x1 PUSH1 0xA0 SHL SUB AND DUP2 MSTORE PUSH1 0x20 ADD DUP6 PUSH1 0x1 PUSH1 0x1 PUSH1 0xA0 SHL SUB AND DUP2 MSTORE PUSH1 0x20 ADD DUP5 DUP2 MSTORE PUSH1 0x20 ADD DUP4 DUP2 MSTORE PUSH1 0x20 ADD DUP3 DUP2 MSTORE PUSH1 0x20 ADD PUSH1 0x0 DUP2 MSTORE PUSH1 0x20 ADD PUSH1 0x0 DUP2 MSTORE PUSH1 0x20 ADD PUSH1 0x1 ISZERO ISZERO DUP2 MSTORE POP PUSH1 0x2 PUSH1 0x0 DUP12 DUP2 MSTORE PUSH1 0x20 ADD SWAP1 DUP2 MSTORE PUSH1 0x20 ADD PUSH1 0x0 KECCAK256 PUSH1 0x0 DUP3 ADD MLOAD DUP2 PUSH1 0x0 ADD PUSH1 0x0 PUSH2 0x100 EXP DUP2 SLOAD DUP2 PUSH1 0x1 PUSH1 0x1 PUSH1 0xA0 SHL SUB MUL NOT AND SWAP1 DUP4 PUSH1 0x1 PUSH1 0x1 PUSH1 0xA0 SHL SUB AND MUL OR SWAP1 SSTORE POP PUSH1 0x20 DUP3 ADD MLOAD DUP2 PUSH1 0x1 ADD PUSH1 0x0 PUSH2 0x100 EXP DUP2 SLOAD DUP2 PUSH1 0x1 PUSH1 0x1 PUSH1 0xA0 SHL SUB MUL NOT AND SWAP1 DUP4 PUSH1 0x1 PUSH1 0x1 PUSH1 0xA0 SHL SUB AND MUL OR SWAP1 SSTORE POP PUSH1 0x40 DUP3 ADD MLOAD DUP2 PUSH1 0x2 ADD SWAP1 DUP2 PUSH2 0x8BF SWAP2 SWAP1 PUSH2 0x1533 JUMP JUMPDEST POP PUSH1 0x60 DUP3 ADD MLOAD PUSH1 0x3 DUP3 DUP2 ADD DUP1 SLOAD PUSH1 0x1 PUSH1 0x1 PUSH1 0xA0 SHL SUB NOT SWAP1 DUP2 AND PUSH1 0x1 PUSH1 0x1 PUSH1 0xA0 SHL SUB SWAP5 DUP6 AND OR SWAP1 SWAP2 SSTORE PUSH1 0x80 DUP6 ADD MLOAD PUSH1 0x4 DUP1 DUP7 ADD DUP1 SLOAD SWAP1 SWAP4 AND SWAP2 DUP6 AND SWAP2 SWAP1 SWAP2 OR SWAP1 SWAP2 SSTORE PUSH1 0xA0 DUP6 ADD MLOAD PUSH1 0x5 DUP6 ADD SSTORE PUSH1 0xC0 DUP6 ADD MLOAD PUSH1 0x6 DUP6 ADD SSTORE PUSH1 0xE0 DUP6 ADD MLOAD PUSH1 0x7 DUP6 ADD SSTORE PUSH2 0x100 DUP6 ADD MLOAD PUSH1 0x8 DUP6 ADD SSTORE PUSH2 0x120 DUP6 ADD MLOAD PUSH1 0x9 DUP6 ADD SSTORE PUSH2 0x140 SWAP1 SWAP5 ADD MLOAD PUSH1 0xA SWAP1 SWAP4 ADD DUP1 SLOAD PUSH1 0xFF NOT AND SWAP4 ISZERO ISZERO SWAP4 SWAP1 SWAP4 OR SWAP1 SWAP3 SSTORE DUP11 AND PUSH1 0x0 DUP2 DUP2 MSTORE PUSH1 0x20 SWAP3 DUP4 MSTORE PUSH1 0x40 DUP1 DUP3 KECCAK256 DUP1 SLOAD PUSH1 0x1 DUP2 DUP2 ADD DUP4 SSTORE SWAP2 DUP5 MSTORE SWAP5 DUP4 KECCAK256 SWAP1 SWAP5 ADD DUP15 SWAP1 SSTORE DUP5 SLOAD SWAP4 DUP5 ADD DUP6 SSTORE SWAP4 DUP2 MSTORE PUSH32 0x8A35ACFBC15FF81A39AE7D344FD709F28E8600B4AA8C65C6B64BFE7FE36BD19B SWAP1 SWAP3 ADD DUP13 SWAP1 SSTORE SWAP2 MLOAD DUP12 SWAP2 PUSH32 0xFE3ABE4AC576AF677B15551BC3727D347D2C7B3D0AA6E5D4EC1BED01E3F13D16 SWAP2 LOG3 POP POP POP POP POP POP POP POP POP JUMP JUMPDEST PUSH1 0x40 DUP1 MLOAD PUSH1 0xA DUP1 DUP3 MSTORE PUSH2 0x160 DUP3 ADD SWAP1 SWAP3 MSTORE PUSH1 0x0 SWAP2 PUSH1 0x60 SWAP2 DUP4 SWAP2 PUSH1 0x20 DUP3 ADD PUSH2 0x140 DUP1 CALLDATASIZE DUP4 CALLDATACOPY ADD SWAP1 POP POP SWAP1 POP PUSH1 0x0 TIMESTAMP DUP2 JUMPDEST PUSH1 0x4 SLOAD DUP2 LT DUP1 ISZERO PUSH2 0xA19 JUMPI POP PUSH1 0xA DUP4 LT JUMPDEST ISZERO PUSH2 0xAD2 JUMPI PUSH1 0x0 PUSH1 0x4 DUP3 DUP2 SLOAD DUP2 LT PUSH2 0xA33 JUMPI PUSH2 0xA33 PUSH2 0x149F JUMP JUMPDEST PUSH1 0x0 SWAP2 DUP3 MSTORE PUSH1 0x20 DUP1 DUP4 KECCAK256 SWAP1 SWAP2 ADD SLOAD DUP1 DUP4 MSTORE PUSH1 0x2 SWAP1 SWAP2 MSTORE PUSH1 0x40 SWAP1 SWAP2 KECCAK256 PUSH1 0xA DUP2 ADD SLOAD SWAP2 SWAP3 POP SWAP1 PUSH1 0xFF AND DUP1 ISZERO PUSH2 0xA6D JUMPI POP DUP1 PUSH1 0x7 ADD SLOAD DUP2 PUSH1 0x8 ADD SLOAD LT JUMPDEST DUP1 ISZERO PUSH2 0xA8C JUMPI POP DUP1 PUSH1 0x6 ADD SLOAD DUP2 PUSH1 0x9 ADD SLOAD PUSH2 0xA88 SWAP2 SWAP1 PUSH2 0x15F3 JUMP JUMPDEST DUP5 LT ISZERO JUMPDEST ISZERO PUSH2 0xABD JUMPI DUP2 DUP7 DUP7 DUP2 MLOAD DUP2 LT PUSH2 0xAA4 JUMPI PUSH2 0xAA4 PUSH2 0x149F JUMP JUMPDEST PUSH1 0x20 SWAP1 DUP2 MUL SWAP2 SWAP1 SWAP2 ADD ADD MSTORE DUP5 PUSH2 0xAB9 DUP2 PUSH2 0x14CB JUMP JUMPDEST SWAP6 POP POP JUMPDEST POP POP DUP1 DUP1 PUSH2 0xACA SWAP1 PUSH2 0x14CB JUMP JUMPDEST SWAP2 POP POP PUSH2 0xA08 JUMP JUMPDEST POP DUP2 ISZERO PUSH2 0xBC9 JUMPI PUSH1 0x0 DUP3 PUSH8 0xFFFFFFFFFFFFFFFF DUP2 GT ISZERO PUSH2 0xAF4 JUMPI PUSH2 0xAF4 PUSH2 0x1311 JUMP JUMPDEST PUSH1 0x40 MLOAD SWAP1 DUP1 DUP3 MSTORE DUP1 PUSH1 0x20 MUL PUSH1 0x20 ADD DUP3 ADD PUSH1 0x40 MSTORE DUP1 ISZERO PUSH2 0xB1D JUMPI DUP2 PUSH1 0x20 ADD PUSH1 0x20 DUP3 MUL DUP1 CALLDATASIZE DUP4 CALLDATACOPY ADD SWAP1 POP JUMPDEST POP SWAP1 POP PUSH1 0x0 JUMPDEST DUP4 DUP2 LT ISZERO PUSH2 0xB74 JUMPI DUP5 DUP2 DUP2 MLOAD DUP2 LT PUSH2 0xB3D JUMPI PUSH2 0xB3D PUSH2 0x149F JUMP JUMPDEST PUSH1 0x20 MUL PUSH1 0x20 ADD ADD MLOAD DUP3 DUP3 DUP2 MLOAD DUP2 LT PUSH2 0xB57 JUMPI PUSH2 0xB57 PUSH2 0x149F JUMP JUMPDEST PUSH1 0x20 SWAP1 DUP2 MUL SWAP2 SWAP1 SWAP2 ADD ADD MSTORE DUP1 PUSH2 0xB6C DUP2 PUSH2 0x14CB JUMP JUMPDEST SWAP2 POP POP PUSH2 0xB23 JUMP JUMPDEST POP PUSH1 0x40 MLOAD PUSH1 0x1 SWAP7 POP PUSH4 0x6ED2F6E9 PUSH1 0xE0 SHL SWAP1 PUSH2 0xB93 SWAP1 DUP4 SWAP1 PUSH1 0x24 ADD PUSH2 0x122E JUMP JUMPDEST PUSH1 0x40 DUP1 MLOAD PUSH1 0x1F NOT DUP2 DUP5 SUB ADD DUP2 MSTORE SWAP2 SWAP1 MSTORE PUSH1 0x20 DUP2 ADD DUP1 MLOAD PUSH1 0x1 PUSH1 0x1 PUSH1 0xE0 SHL SUB AND PUSH1 0x1 PUSH1 0x1 PUSH1 0xE0 SHL SUB NOT SWAP1 SWAP4 AND SWAP3 SWAP1 SWAP3 OR SWAP1 SWAP2 MSTORE SWAP5 POP POP JUMPDEST POP POP POP SWAP1 SWAP2 JUMP JUMPDEST PUSH2 0xBD8 PUSH2 0xE0A JUMP JUMPDEST PUSH1 0x1 PUSH1 0x1 PUSH1 0xA0 SHL SUB DUP2 AND PUSH2 0xC3D JUMPI PUSH1 0x40 MLOAD PUSH3 0x461BCD PUSH1 0xE5 SHL DUP2 MSTORE PUSH1 0x20 PUSH1 0x4 DUP3 ADD MSTORE PUSH1 0x26 PUSH1 0x24 DUP3 ADD MSTORE PUSH32 0x4F776E61626C653A206E6577206F776E657220697320746865207A65726F2061 PUSH1 0x44 DUP3 ADD MSTORE PUSH6 0x646472657373 PUSH1 0xD0 SHL PUSH1 0x64 DUP3 ADD MSTORE PUSH1 0x84 ADD PUSH2 0x5DF JUMP JUMPDEST PUSH2 0xC46 DUP2 PUSH2 0xFF2 JUMP JUMPDEST POP JUMP JUMPDEST PUSH1 0x60 TIMESTAMP PUSH1 0x0 DUP1 JUMPDEST PUSH1 0x4 SLOAD DUP2 LT ISZERO PUSH2 0xCF0 JUMPI PUSH1 0x0 PUSH1 0x4 DUP3 DUP2 SLOAD DUP2 LT PUSH2 0xC6F JUMPI PUSH2 0xC6F PUSH2 0x149F JUMP JUMPDEST PUSH1 0x0 SWAP2 DUP3 MSTORE PUSH1 0x20 DUP1 DUP4 KECCAK256 SWAP1 SWAP2 ADD SLOAD DUP1 DUP4 MSTORE PUSH1 0x2 SWAP1 SWAP2 MSTORE PUSH1 0x40 SWAP1 SWAP2 KECCAK256 PUSH1 0xA DUP2 ADD SLOAD SWAP2 SWAP3 POP SWAP1 PUSH1 0xFF AND DUP1 ISZERO PUSH2 0xCA9 JUMPI POP DUP1 PUSH1 0x7 ADD SLOAD DUP2 PUSH1 0x8 ADD SLOAD LT JUMPDEST DUP1 ISZERO PUSH2 0xCC8 JUMPI POP DUP1 PUSH1 0x6 ADD SLOAD DUP2 PUSH1 0x9 ADD SLOAD PUSH2 0xCC4 SWAP2 SWAP1 PUSH2 0x15F3 JUMP JUMPDEST DUP6 LT ISZERO JUMPDEST ISZERO PUSH2 0xCDB JUMPI DUP4 PUSH2 0xCD7 DUP2 PUSH2 0x14CB JUMP JUMPDEST SWAP5 POP POP JUMPDEST POP POP DUP1 DUP1 PUSH2 0xCE8 SWAP1 PUSH2 0x14CB JUMP JUMPDEST SWAP2 POP POP PUSH2 0xC50 JUMP JUMPDEST POP DUP1 PUSH8 0xFFFFFFFFFFFFFFFF DUP2 GT ISZERO PUSH2 0xD0A JUMPI PUSH2 0xD0A PUSH2 0x1311 JUMP JUMPDEST PUSH1 0x40 MLOAD SWAP1 DUP1 DUP3 MSTORE DUP1 PUSH1 0x20 MUL PUSH1 0x20 ADD DUP3 ADD PUSH1 0x40 MSTORE DUP1 ISZERO PUSH2 0xD33 JUMPI DUP2 PUSH1 0x20 ADD PUSH1 0x20 DUP3 MUL DUP1 CALLDATASIZE DUP4 CALLDATACOPY ADD SWAP1 POP JUMPDEST POP SWAP3 POP PUSH1 0x0 DUP1 JUMPDEST PUSH1 0x4 SLOAD DUP2 LT DUP1 ISZERO PUSH2 0xD4A JUMPI POP DUP3 DUP3 LT JUMPDEST ISZERO PUSH2 0xE03 JUMPI PUSH1 0x0 PUSH1 0x4 DUP3 DUP2 SLOAD DUP2 LT PUSH2 0xD64 JUMPI PUSH2 0xD64 PUSH2 0x149F JUMP JUMPDEST PUSH1 0x0 SWAP2 DUP3 MSTORE PUSH1 0x20 DUP1 DUP4 KECCAK256 SWAP1 SWAP2 ADD SLOAD DUP1 DUP4 MSTORE PUSH1 0x2 SWAP1 SWAP2 MSTORE PUSH1 0x40 SWAP1 SWAP2 KECCAK256 PUSH1 0xA DUP2 ADD SLOAD SWAP2 SWAP3 POP SWAP1 PUSH1 0xFF AND DUP1 ISZERO PUSH2 0xD9E JUMPI POP DUP1 PUSH1 0x7 ADD SLOAD DUP2 PUSH1 0x8 ADD SLOAD LT JUMPDEST DUP1 ISZERO PUSH2 0xDBD JUMPI POP DUP1 PUSH1 0x6 ADD SLOAD DUP2 PUSH1 0x9 ADD SLOAD PUSH2 0xDB9 SWAP2 SWAP1 PUSH2 0x15F3 JUMP JUMPDEST DUP7 LT ISZERO JUMPDEST ISZERO PUSH2 0xDEE JUMPI DUP2 DUP8 DUP6 DUP2 MLOAD DUP2 LT PUSH2 0xDD5 JUMPI PUSH2 0xDD5 PUSH2 0x149F JUMP JUMPDEST PUSH1 0x20 SWAP1 DUP2 MUL SWAP2 SWAP1 SWAP2 ADD ADD MSTORE DUP4 PUSH2 0xDEA DUP2 PUSH2 0x14CB JUMP JUMPDEST SWAP5 POP POP JUMPDEST POP POP DUP1 DUP1 PUSH2 0xDFB SWAP1 PUSH2 0x14CB JUMP JUMPDEST SWAP2 POP POP PUSH2 0xD3A JUMP JUMPDEST POP POP POP POP SWAP1 JUMP JUMPDEST PUSH1 0x0 SLOAD PUSH1 0x1 PUSH1 0x1 PUSH1 0xA0 SHL SUB AND CALLER EQ PUSH2 0x362 JUMPI PUSH1 0x40 MLOAD PUSH3 0x461BCD PUSH1 0xE5 SHL DUP2 MSTORE PUSH1 0x20 PUSH1 0x4 DUP3 ADD DUP2 SWAP1 MSTORE PUSH1 0x24 DUP3 ADD MSTORE PUSH32 0x4F776E61626C653A2063616C6C6572206973206E6F7420746865206F776E6572 PUSH1 0x44 DUP3 ADD MSTORE PUSH1 0x64 ADD PUSH2 0x5DF JUMP JUMPDEST PUSH1 0x2 PUSH1 0x1 SLOAD SUB PUSH2 0xEB6 JUMPI PUSH1 0x40 MLOAD PUSH3 0x461BCD PUSH1 0xE5 SHL DUP2 MSTORE PUSH1 0x20 PUSH1 0x4 DUP3 ADD MSTORE PUSH1 0x1F PUSH1 0x24 DUP3 ADD MSTORE PUSH32 0x5265656E7472616E637947756172643A207265656E7472616E742063616C6C00 PUSH1 0x44 DUP3 ADD MSTORE PUSH1 0x64 ADD PUSH2 0x5DF JUMP JUMPDEST PUSH1 0x2 PUSH1 0x1 SSTORE JUMP JUMPDEST PUSH1 0x0 DUP2 DUP2 MSTORE PUSH1 0x2 PUSH1 0x20 MSTORE PUSH1 0x40 SWAP1 KECCAK256 PUSH1 0xA DUP2 ADD SLOAD PUSH1 0xFF AND PUSH2 0xEF0 JUMPI PUSH1 0x40 MLOAD PUSH4 0x1D4ECC5B PUSH1 0xE0 SHL DUP2 MSTORE PUSH1 0x4 ADD PUSH1 0x40 MLOAD DUP1 SWAP2 SUB SWAP1 REVERT JUMPDEST DUP1 PUSH1 0x7 ADD SLOAD DUP2 PUSH1 0x8 ADD SLOAD LT PUSH2 0xF18 JUMPI PUSH1 0x40 MLOAD PUSH4 0x159460F PUSH1 0xE4 SHL DUP2 MSTORE PUSH1 0x4 ADD PUSH1 0x40 MLOAD DUP1 SWAP2 SUB SWAP1 REVERT JUMPDEST DUP1 PUSH1 0x6 ADD SLOAD DUP2 PUSH1 0x9 ADD SLOAD PUSH2 0xF2C SWAP2 SWAP1 PUSH2 0x15F3 JUMP JUMPDEST TIMESTAMP LT ISZERO PUSH2 0xF4C JUMPI PUSH1 0x40 MLOAD PUSH4 0x159460F PUSH1 0xE4 SHL DUP2 MSTORE PUSH1 0x4 ADD PUSH1 0x40 MLOAD DUP1 SWAP2 SUB SWAP1 REVERT JUMPDEST PUSH1 0x8 DUP2 ADD DUP1 SLOAD SWAP1 PUSH1 0x0 PUSH2 0xF5E DUP4 PUSH2 0x14CB JUMP JUMPDEST SWAP1 SWAP2 SSTORE POP POP TIMESTAMP PUSH1 0x9 DUP3 ADD SSTORE PUSH1 0x7 DUP2 ADD SLOAD PUSH1 0x8 DUP3 ADD SLOAD LT PUSH2 0xFB0 JUMPI PUSH1 0xA DUP2 ADD DUP1 SLOAD PUSH1 0xFF NOT AND SWAP1 SSTORE PUSH1 0x40 MLOAD DUP3 SWAP1 PUSH32 0xC1471DE81880C1B225E1D454A583A6F0FDE1F88FB0F03CA678BE2A3656C0F7C2 SWAP1 PUSH1 0x0 SWAP1 LOG2 JUMPDEST DUP2 PUSH32 0xE8ADE2685198C6BFE966DCE5F0F784436B665F282482334786C7B49516B98AA6 DUP3 PUSH1 0x8 ADD SLOAD PUSH1 0x40 MLOAD PUSH2 0xFE6 SWAP2 DUP2 MSTORE PUSH1 0x20 ADD SWAP1 JUMP JUMPDEST PUSH1 0x40 MLOAD DUP1 SWAP2 SUB SWAP1 LOG2 POP POP JUMP JUMPDEST PUSH1 0x0 DUP1 SLOAD PUSH1 0x1 PUSH1 0x1 PUSH1 0xA0 SHL SUB DUP4 DUP2 AND PUSH1 0x1 PUSH1 0x1 PUSH1 0xA0 SHL SUB NOT DUP4 AND DUP2 OR DUP5 SSTORE PUSH1 0x40 MLOAD SWAP2 SWAP1 SWAP3 AND SWAP3 DUP4 SWAP2 PUSH32 0x8BE0079C531659141344CD1FD0A4F28419497F9722A3DAAFE3B4186F6B6457E0 SWAP2 SWAP1 LOG3 POP POP JUMP JUMPDEST PUSH1 0x0 PUSH1 0x20 DUP3 DUP5 SUB SLT ISZERO PUSH2 0x1054 JUMPI PUSH1 0x0 DUP1 REVERT JUMPDEST POP CALLDATALOAD SWAP2 SWAP1 POP JUMP JUMPDEST PUSH1 0x0 DUP2 MLOAD DUP1 DUP5 MSTORE PUSH1 0x0 JUMPDEST DUP2 DUP2 LT ISZERO PUSH2 0x1081 JUMPI PUSH1 0x20 DUP2 DUP6 ADD DUP2 ADD MLOAD DUP7 DUP4 ADD DUP3 ADD MSTORE ADD PUSH2 0x1065 JUMP JUMPDEST POP PUSH1 0x0 PUSH1 0x20 DUP3 DUP7 ADD ADD MSTORE PUSH1 0x20 PUSH1 0x1F NOT PUSH1 0x1F DUP4 ADD AND DUP6 ADD ADD SWAP2 POP POP SWAP3 SWAP2 POP POP JUMP JUMPDEST PUSH1 0x1 PUSH1 0x1 PUSH1 0xA0 SHL SUB DUP13 DUP2 AND DUP3 MSTORE DUP12 DUP2 AND PUSH1 0x20 DUP4 ADD MSTORE PUSH2 0x160 PUSH1 0x40 DUP4 ADD DUP2 SWAP1 MSTORE PUSH1 0x0 SWAP2 PUSH2 0x10CF DUP5 DUP4 ADD DUP15 PUSH2 0x105B JUMP JUMPDEST SWAP12 DUP2 AND PUSH1 0x60 DUP6 ADD MSTORE SWAP10 SWAP1 SWAP10 AND PUSH1 0x80 DUP4 ADD MSTORE POP PUSH1 0xA0 DUP2 ADD SWAP7 SWAP1 SWAP7 MSTORE PUSH1 0xC0 DUP7 ADD SWAP5 SWAP1 SWAP5 MSTORE PUSH1 0xE0 DUP6 ADD SWAP3 SWAP1 SWAP3 MSTORE PUSH2 0x100 DUP5 ADD MSTORE PUSH2 0x120 DUP4 ADD MSTORE ISZERO ISZERO PUSH2 0x140 SWAP1 SWAP2 ADD MSTORE POP SWAP4 SWAP3 POP POP POP JUMP JUMPDEST PUSH1 0x20 DUP2 MSTORE PUSH2 0x1130 PUSH1 0x20 DUP3 ADD DUP4 MLOAD PUSH1 0x1 PUSH1 0x1 PUSH1 0xA0 SHL SUB AND SWAP1 MSTORE JUMP JUMPDEST PUSH1 0x0 PUSH1 0x20 DUP4 ADD MLOAD PUSH2 0x114C PUSH1 0x40 DUP5 ADD DUP3 PUSH1 0x1 PUSH1 0x1 PUSH1 0xA0 SHL SUB AND SWAP1 MSTORE JUMP JUMPDEST POP PUSH1 0x40 DUP4 ADD MLOAD PUSH2 0x160 DUP1 PUSH1 0x60 DUP6 ADD MSTORE PUSH2 0x1169 PUSH2 0x180 DUP6 ADD DUP4 PUSH2 0x105B JUMP JUMPDEST SWAP2 POP PUSH1 0x60 DUP6 ADD MLOAD PUSH2 0x1185 PUSH1 0x80 DUP7 ADD DUP3 PUSH1 0x1 PUSH1 0x1 PUSH1 0xA0 SHL SUB AND SWAP1 MSTORE JUMP JUMPDEST POP PUSH1 0x80 DUP6 ADD MLOAD PUSH1 0x1 PUSH1 0x1 PUSH1 0xA0 SHL SUB DUP2 AND PUSH1 0xA0 DUP7 ADD MSTORE POP PUSH1 0xA0 DUP6 ADD MLOAD PUSH1 0xC0 DUP6 DUP2 ADD SWAP2 SWAP1 SWAP2 MSTORE DUP6 ADD MLOAD PUSH1 0xE0 DUP1 DUP7 ADD SWAP2 SWAP1 SWAP2 MSTORE DUP6 ADD MLOAD PUSH2 0x100 DUP1 DUP7 ADD SWAP2 SWAP1 SWAP2 MSTORE DUP6 ADD MLOAD PUSH2 0x120 DUP1 DUP7 ADD SWAP2 SWAP1 SWAP2 MSTORE DUP6 ADD MLOAD PUSH2 0x140 DUP1 DUP7 ADD SWAP2 SWAP1 SWAP2 MSTORE DUP6 ADD MLOAD DUP1 ISZERO ISZERO DUP3 DUP7 ADD MSTORE POP SWAP1 SWAP5 SWAP4 POP POP POP POP JUMP JUMPDEST DUP1 CALLDATALOAD PUSH1 0x1 PUSH1 0x1 PUSH1 0xA0 SHL SUB DUP2 AND DUP2 EQ PUSH2 0x1207 JUMPI PUSH1 0x0 DUP1 REVERT JUMPDEST SWAP2 SWAP1 POP JUMP JUMPDEST PUSH1 0x0 PUSH1 0x20 DUP3 DUP5 SUB SLT ISZERO PUSH2 0x121E JUMPI PUSH1 0x0 DUP1 REVERT JUMPDEST PUSH2 0x1227 DUP3 PUSH2 0x11F0 JUMP JUMPDEST SWAP4 SWAP3 POP POP POP JUMP JUMPDEST PUSH1 0x20 DUP1 DUP3 MSTORE DUP3 MLOAD DUP3 DUP3 ADD DUP2 SWAP1 MSTORE PUSH1 0x0 SWAP2 SWAP1 DUP5 DUP3 ADD SWAP1 PUSH1 0x40 DUP6 ADD SWAP1 DUP5 JUMPDEST DUP2 DUP2 LT ISZERO PUSH2 0x1266 JUMPI DUP4 MLOAD DUP4 MSTORE SWAP3 DUP5 ADD SWAP3 SWAP2 DUP5 ADD SWAP2 PUSH1 0x1 ADD PUSH2 0x124A JUMP JUMPDEST POP SWAP1 SWAP7 SWAP6 POP POP POP POP POP POP JUMP JUMPDEST PUSH1 0x0 DUP1 PUSH1 0x20 DUP4 DUP6 SUB SLT ISZERO PUSH2 0x1285 JUMPI PUSH1 0x0 DUP1 REVERT JUMPDEST DUP3 CALLDATALOAD PUSH8 0xFFFFFFFFFFFFFFFF DUP1 DUP3 GT ISZERO PUSH2 0x129D JUMPI PUSH1 0x0 DUP1 REVERT JUMPDEST DUP2 DUP6 ADD SWAP2 POP DUP6 PUSH1 0x1F DUP4 ADD SLT PUSH2 0x12B1 JUMPI PUSH1 0x0 DUP1 REVERT JUMPDEST DUP2 CALLDATALOAD DUP2 DUP2 GT ISZERO PUSH2 0x12C0 JUMPI PUSH1 0x0 DUP1 REVERT JUMPDEST DUP7 PUSH1 0x20 DUP3 PUSH1 0x5 SHL DUP6 ADD ADD GT ISZERO PUSH2 0x12D5 JUMPI PUSH1 0x0 DUP1 REVERT JUMPDEST PUSH1 0x20 SWAP3 SWAP1 SWAP3 ADD SWAP7 SWAP2 SWAP6 POP SWAP1 SWAP4 POP POP POP POP JUMP JUMPDEST PUSH1 0x0 DUP1 PUSH1 0x40 DUP4 DUP6 SUB SLT ISZERO PUSH2 0x12FA JUMPI PUSH1 0x0 DUP1 REVERT JUMPDEST PUSH2 0x1303 DUP4 PUSH2 0x11F0 JUMP JUMPDEST SWAP5 PUSH1 0x20 SWAP4 SWAP1 SWAP4 ADD CALLDATALOAD SWAP4 POP POP POP JUMP JUMPDEST PUSH4 0x4E487B71 PUSH1 0xE0 SHL PUSH1 0x0 MSTORE PUSH1 0x41 PUSH1 0x4 MSTORE PUSH1 0x24 PUSH1 0x0 REVERT JUMPDEST PUSH1 0x0 DUP1 PUSH1 0x0 DUP1 PUSH1 0x0 DUP1 PUSH1 0x0 DUP1 PUSH1 0x0 PUSH2 0x120 DUP11 DUP13 SUB SLT ISZERO PUSH2 0x1346 JUMPI PUSH1 0x0 DUP1 REVERT JUMPDEST DUP10 CALLDATALOAD SWAP9 POP PUSH2 0x1356 PUSH1 0x20 DUP12 ADD PUSH2 0x11F0 JUMP JUMPDEST SWAP8 POP PUSH2 0x1364 PUSH1 0x40 DUP12 ADD PUSH2 0x11F0 JUMP JUMPDEST SWAP7 POP PUSH1 0x60 DUP11 ADD CALLDATALOAD PUSH8 0xFFFFFFFFFFFFFFFF DUP1 DUP3 GT ISZERO PUSH2 0x1381 JUMPI PUSH1 0x0 DUP1 REVERT JUMPDEST DUP2 DUP13 ADD SWAP2 POP DUP13 PUSH1 0x1F DUP4 ADD SLT PUSH2 0x1395 JUMPI PUSH1 0x0 DUP1 REVERT JUMPDEST DUP2 CALLDATALOAD DUP2 DUP2 GT ISZERO PUSH2 0x13A7 JUMPI PUSH2 0x13A7 PUSH2 0x1311 JUMP JUMPDEST PUSH1 0x40 MLOAD PUSH1 0x1F DUP3 ADD PUSH1 0x1F NOT SWAP1 DUP2 AND PUSH1 0x3F ADD AND DUP2 ADD SWAP1 DUP4 DUP3 GT DUP2 DUP4 LT OR ISZERO PUSH2 0x13CF JUMPI PUSH2 0x13CF PUSH2 0x1311 JUMP JUMPDEST DUP2 PUSH1 0x40 MSTORE DUP3 DUP2 MSTORE DUP16 PUSH1 0x20 DUP5 DUP8 ADD ADD GT ISZERO PUSH2 0x13E8 JUMPI PUSH1 0x0 DUP1 REVERT JUMPDEST DUP3 PUSH1 0x20 DUP7 ADD PUSH1 0x20 DUP4 ADD CALLDATACOPY PUSH1 0x0 PUSH1 0x20 DUP5 DUP4 ADD ADD MSTORE DUP1 SWAP11 POP POP POP POP POP POP PUSH2 0x140F PUSH1 0x80 DUP12 ADD PUSH2 0x11F0 JUMP JUMPDEST SWAP5 POP PUSH2 0x141D PUSH1 0xA0 DUP12 ADD PUSH2 0x11F0 JUMP JUMPDEST SWAP4 POP PUSH1 0xC0 DUP11 ADD CALLDATALOAD SWAP3 POP PUSH1 0xE0 DUP11 ADD CALLDATALOAD SWAP2 POP PUSH2 0x100 DUP11 ADD CALLDATALOAD SWAP1 POP SWAP3 SWAP6 SWAP9 POP SWAP3 SWAP6 SWAP9 POP SWAP3 SWAP6 SWAP9 JUMP JUMPDEST DUP3 ISZERO ISZERO DUP2 MSTORE PUSH1 0x40 PUSH1 0x20 DUP3 ADD MSTORE PUSH1 0x0 PUSH2 0x145D PUSH1 0x40 DUP4 ADD DUP5 PUSH2 0x105B JUMP JUMPDEST SWAP5 SWAP4 POP POP POP POP JUMP JUMPDEST PUSH1 0x1 DUP2 DUP2 SHR SWAP1 DUP3 AND DUP1 PUSH2 0x1479 JUMPI PUSH1 0x7F DUP3 AND SWAP2 POP JUMPDEST PUSH1 0x20 DUP3 LT DUP2 SUB PUSH2 0x1499 JUMPI PUSH4 0x4E487B71 PUSH1 0xE0 SHL PUSH1 0x0 MSTORE PUSH1 0x22 PUSH1 0x4 MSTORE PUSH1 0x24 PUSH1 0x0 REVERT JUMPDEST POP SWAP2 SWAP1 POP JUMP JUMPDEST PUSH4 0x4E487B71 PUSH1 0xE0 SHL PUSH1 0x0 MSTORE PUSH1 0x32 PUSH1 0x4 MSTORE PUSH1 0x24 PUSH1 0x0 REVERT JUMPDEST PUSH4 0x4E487B71 PUSH1 0xE0 SHL PUSH1 0x0 MSTORE PUSH1 0x11 PUSH1 0x4 MSTORE PUSH1 0x24 PUSH1 0x0 REVERT JUMPDEST PUSH1 0x0 PUSH1 0x1 DUP3 ADD PUSH2 0x14DD JUMPI PUSH2 0x14DD PUSH2 0x14B5 JUMP JUMPDEST POP PUSH1 0x1 ADD SWAP1 JUMP JUMPDEST PUSH1 0x1F DUP3 GT ISZERO PUSH2 0x152E JUMPI PUSH1 0x0 DUP2 DUP2 MSTORE PUSH1 0x20 DUP2 KECCAK256 PUSH1 0x1F DUP6 ADD PUSH1 0x5 SHR DUP2 ADD PUSH1 0x20 DUP7 LT ISZERO PUSH2 0x150B JUMPI POP DUP1 JUMPDEST PUSH1 0x1F DUP6 ADD PUSH1 0x5 SHR DUP3 ADD SWAP2 POP JUMPDEST DUP2 DUP2 LT ISZERO PUSH2 0x152A JUMPI DUP3 DUP2 SSTORE PUSH1 0x1 ADD PUSH2 0x1517 JUMP JUMPDEST POP POP POP JUMPDEST POP POP POP JUMP JUMPDEST DUP2 MLOAD PUSH8 0xFFFFFFFFFFFFFFFF DUP2 GT ISZERO PUSH2 0x154D JUMPI PUSH2 0x154D PUSH2 0x1311 JUMP JUMPDEST PUSH2 0x1561 DUP2 PUSH2 0x155B DUP5 SLOAD PUSH2 0x1465 JUMP JUMPDEST DUP5 PUSH2 0x14E4 JUMP JUMPDEST PUSH1 0x20 DUP1 PUSH1 0x1F DUP4 GT PUSH1 0x1 DUP2 EQ PUSH2 0x1596 JUMPI PUSH1 0x0 DUP5 ISZERO PUSH2 0x157E JUMPI POP DUP6 DUP4 ADD MLOAD JUMPDEST PUSH1 0x0 NOT PUSH1 0x3 DUP7 SWAP1 SHL SHR NOT AND PUSH1 0x1 DUP6 SWAP1 SHL OR DUP6 SSTORE PUSH2 0x152A JUMP JUMPDEST PUSH1 0x0 DUP6 DUP2 MSTORE PUSH1 0x20 DUP2 KECCAK256 PUSH1 0x1F NOT DUP7 AND SWAP2 JUMPDEST DUP3 DUP2 LT ISZERO PUSH2 0x15C5 JUMPI DUP9 DUP7 ADD MLOAD DUP3 SSTORE SWAP5 DUP5 ADD SWAP5 PUSH1 0x1 SWAP1 SWAP2 ADD SWAP1 DUP5 ADD PUSH2 0x15A6 JUMP JUMPDEST POP DUP6 DUP3 LT ISZERO PUSH2 0x15E3 JUMPI DUP8 DUP6 ADD MLOAD PUSH1 0x0 NOT PUSH1 0x3 DUP9 SWAP1 SHL PUSH1 0xF8 AND SHR NOT AND DUP2 SSTORE JUMPDEST POP POP POP POP POP PUSH1 0x1 SWAP1 DUP2 SHL ADD SWAP1 SSTORE POP JUMP JUMPDEST DUP1 DUP3 ADD DUP1 DUP3 GT ISZERO PUSH2 0x1606 JUMPI PUSH2 0x1606 PUSH2 0x14B5 JUMP JUMPDEST SWAP3 SWAP2 POP POP JUMP INVALID LOG2 PUSH5 0x6970667358 0x22 SLT KECCAK256 MSTORE8 SIGNEXTEND PUSH13 0xC53031EAE48B352D723BE7DFE1 RETURNDATASIZE 0xDB 0xBC 0xF 0xC AND 0xDF 0xC6 0x5E 0xD SWAP16 LOG4 0xE SDIV 0xB6 0xD9 PUSH5 0x736F6C6343 STOP ADDMOD SGT STOP CALLER "},"methodIdentifiers":{"allOrderIds(uint256)":"2bf05e9b","cancelOrder(bytes32)":"7489ec23","checker()":"cf5303cf","createOrder(bytes32,address,address,string,address,address,uint256,uint256,uint256)":"bd8d5336","dcaOrders(bytes32)":"485782b5","emergencyPause()":"51858e27","executeOrders(bytes32[])":"6ed2f6e9","getOrder(bytes32)":"5778472a","getReadyOrders()":"fb65d668","getTotalOrders()":"375f16a7","getUserOrders(address)":"63c69f08","owner()":"8da5cb5b","renounceOwnership()":"715018a6","transferOwnership(address)":"f2fde38b","userOrders(address,uint256)":"856652e9"}}}}}